:100000000C945B000C9483000C9483000C9483008C
:100010000C9483000C9483000C9483000C94830054
:100020000C9483000C9483000C9483000C94830044
:100030000C9483000C9483000C9483000C94830034
:100040000C94FF000C9483000C941D050C94830009
:100050000C9483000C9483000C9483000C94830014
:100060000C9483000C948300000024272A000025B0
:10007000282B000023262904040404040404040299
:100080000202020202030303030303010204081035
:100090002040800102040810200102040810200002
:1000A0000000070002010000030406000000000039
:1000B000000000008A0411241FBECFEFD4E0DEBF91
:1000C000CDBF11E0A0E0B1E0E4EDFEE002C005909C
:1000D0000D92AC30B107D9F711E0ACE0B1E001C04E
:1000E0001D92A23AB107E1F710E0C6EBD0E004C0E0
:1000F0002297FE010E946407C43BD107C9F70E9402
:10010000F8000C9468070C94000061E080910001F5
:100110000E94D50360E0809100010E94F30382E019
:1001200090E00E94940161E0809100010E94F3033D
:1001300085E090E00E94940160E0809100010E94BF
:10014000F30360E0809100010E94D50361E080919B
:1001500000010E94F30320E432E44FE050E061E04C
:10016000809100010E94DC0160930C0170930D01ED
:1001700080930E0190930F010E94EE0520E53DE86B
:1001800048E652E40E945A0524E13EEA47EC5EE369
:100190000E947C060E94C2059B01AC016093100185
:1001A000709311018093120190931301CA01089575
:1001B0000E9485008CE191E00E94A50368EE73E047
:1001C00080E090E00E946A01089540E855E260E016
:1001D00070E08CE191E00E949E0461E0809100015A
:1001E0000E94D50361E0809102010E94D503089529
:1001F0000E94A2010E94E5000E94D800FDCF1F923C
:100200000F920FB60F9211242F938F939F93AF935A
:10021000BF938091140190911501A0911601B091A6
:1002200017018050904CAF4FBF4F809314019093B3
:100230001501A0931601B093170127C080911401F6
:1002400090911501A0911601B091170180589E431D
:10025000A040B0408093140190931501A093160123
:10026000B09317018091180190911901A0911A0182
:10027000B0911B010196A11DB11D809318019093AF
:100280001901A0931A01B0931B0180911401909160
:100290001501A0911601B091170181589E43A0400D
:1002A000B04060F6BF91AF919F918F912F910F90C9
:1002B0000FBE0F901F9018958FB7F89420911801DA
:1002C0003091190140911A0150911B018FBFB90162
:1002D000CA010895EF92FF920F931F937B018C0147
:1002E0008FB7F894409118015091190160911A014B
:1002F00070911B018FBF2FB7F894809118019091D6
:100300001901A0911A01B0911B012FBF841B950BFD
:10031000A60BB70B8E159F05A007B10760F31F91C1
:100320000F91FF90EF900895019759F0FC01EE0FA7
:10033000FF1FEE0FFF1F32978FB7F8943197F1F739
:100340008FBF0895789484B5826084BD84B5816040
:1003500084BD85B5826085BD85B5816085BDEEE6CD
:10036000F0E0808181608083E1E8F0E0808182605C
:100370008083808181608083E0E8F0E0808181601B
:100380008083E1EBF0E0808184608083E0EBF0E04B
:10039000808181608083EAE7F0E0808184608083EF
:1003A0008081826080838081816080838081806899
:1003B00080831092C1000895EF92FF920F931F93D4
:1003C000A82FB0E0CD0185579F4FFC017491A9582B
:1003D000BF4FFD018491662311F490E001C0972F77
:1003E0006FEFE62E6FEFF62E6FEF062F6FE0162FF2
:1003F000E222F3220423152320E030E040E050E025
:10040000E82FF0E0EE58FF4F8491A82FB0E00EC027
:100410002E153F054007510729F420E030E040E069
:1004200050E02DC02F5F3F4F4F4F5F4F8C91872380
:10043000891771F720E030E040E050E08491E82F28
:10044000F0E004C02F5F3F4F4F4F5F4F8081872305
:100450008917C1F3CA01B9012AE030E040E050E059
:100460000E94DF069B01AC01205F3F4F4F4F5F4F63
:1004700084E056954795379527958A95D1F7B90128
:10048000CA011F910F91FF90EF900895DC01ED914B
:10049000FC910190F081E02D09950895DC01ED912A
:1004A000FC910190F081E02D099508950F931F9321
:1004B000CF93DF938C01EB0109C02196D801ED9118
:1004C000FC910190F081E02DC801099568816623B7
:1004D000A1F7DF91CF911F910F9108950F931F9373
:1004E0008C01DC01ED91FC910190F081E02D6DE03B
:1004F0000995D801ED91FC910190F081E02D6AE021
:10050000C80109951F910F9108950F931F938C01B6
:10051000DC01ED91FC910190F081E02D0995C8017D
:100520000E946E021F910F9108950F931F938C01EB
:100530000E945602C8010E946E021F910F910895F9
:100540000F931F938C01DC01ED91FC910190F081E0
:10055000E02D0995C8010E946E021F910F91089528
:100560002F923F924F925F926F927F928F929F92C3
:10057000AF92BF92CF92DF92EF92FF920F931F93B1
:10058000DF93CF93CDB7DEB7A0970FB6F894DEBF59
:100590000FBECDBF1C016A017B01411551056105EC
:1005A000710549F4DC01ED91FC910190F081E02DA1
:1005B00060E3099554C0882499245401422E55249F
:1005C0006624772401E010E00C0F1D1F080D191D93
:1005D000C701B601A30192010E941107F8016083CF
:1005E0000894811C911CA11CB11CC701B601A30178
:1005F00092010E941107C901DA016C017D01C11449
:10060000D104E104F104F1F681E0E82EF12CEC0EC6
:10061000FD1EE80CF91C3E010894611C711CD501FB
:10062000C4010197A109B1096C01C818D90814C007
:10063000F601EE0DFF1D60816A3010F4605D01C0AF
:10064000695CD101ED91FC910190F081E02DC10137
:1006500009950894E108F1086E147F0449F7A09603
:100660000FB6F894DEBF0FBECDBFCF91DF911F91C3
:100670000F91FF90EF90DF90CF90BF90AF909F9041
:100680008F907F906F905F904F903F902F90089544
:100690002AE00E94B00208950F931F938C010E94DC
:1006A0004803C8010E946E021F910F910895AB018B
:1006B00060E070E00E94480308950F931F938C013F
:1006C000AB0160E070E00E944803C8010E946E0226
:1006D0001F910F910895EF92FF920F931F93CF9365
:1006E000DF93EC017A018B0177FF0FC0E881F9817C
:1006F0000190F081E02D6DE2099510950095F09440
:10070000E094E11CF11C011D111D2AE0B801A701B4
:10071000CE010E94B002DF91CF911F910F91FF9007
:10072000EF9008950F931F938C010E946B03C801F3
:100730000E946E021F910F910895AB01662757FD2D
:100740006095762F0E946B0308950F931F938C0181
:10075000AB01662757FD6095762F0E946B03C80199
:100760000E946E021F910F910895DC012115310541
:1007700041F4ED91FC910190F081E02D642F0995F9
:1007800008952A30310519F40E946B0308950E94E0
:10079000B00208950F931F938C010E94B503C80106
:1007A0000E946E021F910F910895282F30E0C90119
:1007B00085579F4FFC01949129583F4FF90184912F
:1007C000882381F0E82FF0E0E859FF4FE491F0E052
:1007D000662329F480819095892380830895808100
:1007E000892B80830895482F50E0CA0181569F4F7E
:1007F000FC012491CA0185579F4FFC0194914958EF
:100800005F4FFA0134913323C1F1222331F12330B8
:1008100021F4809180008F7705C0243031F48091DD
:1008200080008F7D8093800018C0213019F484B53A
:100830008F7704C0223021F484B58F7D84BD0DC034
:10084000263021F48091B0008F7705C0273029F43D
:100850008091B0008F7D8093B000E32FF0E0E359EA
:10086000FF4FE491F0E0662329F48081909589237D
:10087000808308958081892B80830895482F50E0DC
:10088000CA0181569F4FFC012491CA0185579F4F91
:10089000FC01949149585F4FFA013491332319F4C4
:1008A00020E030E035C0222331F1233021F4809163
:1008B00080008F7705C0243031F4809180008F7DD7
:1008C0008093800018C0213019F484B58F7704C05C
:1008D000223021F484B58F7D84BD0DC0263021F4F3
:1008E0008091B0008F7705C0273029F48091B00047
:1008F0008F7D8093B000E32FF0E0EE58FF4FE4913E
:10090000F0E0808120E030E0892311F021E030E048
:10091000C90108958AE091E090931D0180931C0124
:100920000895862F0E94DC0408950E9414050895FE
:100930000E94F50408950E94E4040895CB01BA01D1
:100940000E94A3040895EF92FF920F931F937B01DF
:100950008C0122E030E040E050E00E943307205C50
:100960003D4B404F5F4FCA01B901A80197010E945A
:100970003307C901DA010197A109B109292F3A2FDB
:100980004B2F552747FD5A950196A11DB11D209368
:10099000C50081508093C400E1ECF0E0808180616B
:1009A00080838081886080838081806880831F91BC
:1009B0000F91FF90EF900895982F8091C00085FFD0
:1009C000FCCF9093C600089580911E0190911F0165
:1009D00080589F4F2091200130912101821B930B61
:1009E00060E870E00E94FE06089540912001509159
:1009F000210180911E0190911F018417950719F420
:100A00002FEF3FEF0FC0FA01EE5DFE4F2081CA01CC
:100A1000019660E870E00E94FE06909321018093A9
:100A2000200130E0C90108958091200190912101B9
:100A300090931F0180931E0108951F920F920FB68D
:100A40000F9211242F933F934F935F936F937F9354
:100A50008F939F93AF93BF93EF93FF934091C60003
:100A6000E0911E01F0911F01CF01019660E870E056
:100A70000E94FE069C01809120019091210128177F
:100A8000390739F0EE5DFE4F408330931F0120930C
:100A90001E01FF91EF91BF91AF919F918F917F9137
:100AA0006F915F914F913F912F910F900FBE0F90DB
:100AB0001F9018950CD0E6C0DED040F0D5D030F0B5
:100AC00021F45F3F19F0C7C0511110C1CAC0EBD06B
:100AD00098F39923C9F35523B1F3951B550BBB2705
:100AE000AA2762177307840738F09F5F5F4F220FB2
:100AF000331F441FAA1FA9F333D00E2E3AF0E0E8AB
:100B000030D091505040E695001CCAF729D0FE2FF6
:100B100027D0660F771F881FBB1F26173707480788
:100B2000AB07B0E809F0BB0B802DBF01FF2793583E
:100B30005F4F2AF09E3F510568F08DC0D7C05F3FE0
:100B4000ECF3983EDCF3869577956795B795F79526
:100B50009F5FC9F7880F911D9695879597F908951E
:100B6000E1E0660F771F881FBB1F621773078407BA
:100B7000BA0720F0621B730B840BBA0BEE1F88F7C9
:100B8000E095089598D088F09F5790F0B92F992755
:100B9000B751A0F0D1F0660F771F881F991F1AF088
:100BA000BA95C9F712C0B13081F09FD0B1E0089575
:100BB0009CC0672F782F8827B85F39F0B93FCCF3F6
:100BC000869577956795B395D9F73EF4909580957E
:100BD000709561957F4F8F4F9F4F0895E89409C09E
:100BE00097FB3EF490958095709561957F4F8F4F60
:100BF0009F4F9923A9F0F92F96E9BB279395F69576
:100C0000879577956795B795F111F8CFFAF4BB0FF3
:100C100011F460FF1BC06F5F7F4F8F4F9F4F16C057
:100C2000882311F096E911C0772321F09EE8872FE1
:100C3000762F05C0662371F096E8862F70E060E09D
:100C40002AF09A95660F771F881FDAF7880F969516
:100C5000879597F9089597F99F6780E870E060E0BD
:100C600008959FEF80EC089500240A941616170645
:100C700018060906089500240A941216130614068D
:100C800005060895092E0394000C11F4882352F0F0
:100C9000BB0F40F4BF2B11F460FF04C06F5F7F4FA8
:100CA0008F4F9F4F089557FD9058440F551F59F08F
:100CB0005F3F71F04795880F97FB991F61F09F3F49
:100CC00079F087950895121613061406551FF2CF72
:100CD0004695F1DF08C0161617061806991FF1CFC2
:100CE00086957105610508940895E894BB276627E9
:100CF0007727CB0197F908950BD0C4CFB5DF28F043
:100D0000BADF18F0952309F0A6CFABCF1124EECFB0
:100D1000CADFA0F3959FD1F3950F50E0551F629F56
:100D2000F001729FBB27F00DB11D639FAA27F00D44
:100D3000B11DAA1F649F6627B00DA11D661F829F6B
:100D40002227B00DA11D621F739FB00DA11D621F50
:100D5000839FA00D611D221F749F3327A00D611D6D
:100D6000231F849F600D211D822F762F6A2F11244F
:100D70009F5750408AF0E1F088234AF0EE0FFF1FA2
:100D8000BB1F661F771F881F91505040A9F79E3FD9
:100D9000510570F060CFAACF5F3FECF3983EDCF3D3
:100DA000869577956795B795F795E7959F5FC1F716
:100DB000FE2B880F911D9695879597F90895629F50
:100DC000D001739FF001829FE00DF11D649FE00D43
:100DD000F11D929FF00D839FF00D749FF00D659FA4
:100DE000F00D9927729FB00DE11DF91F639FB00DA3
:100DF000E11DF91FBD01CF011124089597FB092EB4
:100E000007260AD077FD04D049D006D000201AF476
:100E1000709561957F4F0895F6F7909581959F4F56
:100E20000895A1E21A2EAA1BBB1BFD010DC0AA1F2B
:100E3000BB1FEE1FFF1FA217B307E407F50720F043
:100E4000A21BB30BE40BF50B661F771F881F991FBE
:100E50001A9469F760957095809590959B01AC0107
:100E6000BD01CF01089597FB092E05260ED057FD31
:100E700004D0D7DF0AD0001C38F450954095309547
:100E800021953F4F4F4F5F4F0895F6F7909580950E
:100E9000709561957F4F8F4F9F4F0895AA1BBB1B85
:100EA00051E107C0AA1FBB1FA617B70710F0A61B6A
:100EB000B70B881F991F5A95A9F780959095BC018B
:100EC000CD010895EE0FFF1F0590F491E02D0994D8
:040ED000F894FFCFC4
:0C0ED4000700060002000000000091046E
:00000001FF
