:100000000C945A000C9477000C9477000C947700B1
:100010000C9477000C9477000C9477000C94770084
:100020000C9477000C9477000C9477000C94770074
:100030000C9477000C9477000C9477000C94770064
:100040000C9436010C9477000C9413030C947700F5
:100050000C9477000C9477000C9477000C94770044
:100060000C9477000C947700000024272A000025C8
:10007000282B000023262904040404040404040299
:100080000202020202030303030303010204081035
:100090002040800102040810200102040810200002
:1000A0000000070002010000030406000000000039
:1000B0000000000011241FBECFEFD4E0DEBFCDBF93
:1000C00011E0A0E0B1E0E2E2F9E002C005900D929B
:1000D000A630B107D9F711E0A6E0B1E001C01D924A
:1000E000A439B107E1F70E942F010C9490040C94FD
:1000F000000010920B0110920A0110920701109259
:10010000060161E0809100010E94E40160E08091BD
:1001100000010E944E0282E090E00E94950161E0A1
:10012000809100010E944E0285E090E00E949501BE
:1001300060E0809100010E944E0260E08091000129
:100140000E94E401809100010E9402029093070145
:10015000809306018091060190910701892B91F30C
:1001600011C0809100010E940202909307018093C8
:10017000060180910A0190910B01019690930B0169
:1001800080930A018091060190910701019749F33C
:1001900080910A0190910B019093090180930801CD
:1001A00081E40E94D20260910801709109018827C0
:1001B00077FD8095982F0E94FB038AE00E94D2026F
:1001C0008DE00E94D20280910A0190910B018C5423
:1001D0009440893C910560F461E0809102010E94A5
:1001E0004E0260EB74E080E090E00E94730105C075
:1001F00060E0809102010E944E0280910A0190917C
:100200000B018C5B9240893C910560F461E0809128
:1002100004010E944E0264E175E080E090E00E94DB
:10022000730105C060E0809104010E944E0260E904
:1002300071E080E090E00E947301089560E875E24B
:1002400080E090E00E94990261E0809102010E94AA
:10025000E40161E0809104010E94E40108950E949C
:10026000A2010E941E010E947900FDCF1F920F92F1
:100270000FB60F9211248F939F93AF93BF938091EA
:10028000100190911101A0911201B09113010196FA
:10029000A11DB11D8093100190931101A093120133
:1002A000B0931301BF91AF919F918F910F900FBEAB
:1002B0000F901F901895609110017091110180911D
:1002C00012019091130127E0660F771F881F991F75
:1002D0002A95D1F72DE730E040E050E00E943F043E
:1002E000CA01B9010895AF92BF92CF92DF92EF9207
:1002F000FF920F931F935B016C010E945B017B01D6
:100300008C010E945B016E197F09800B910B6A15AD
:100310007B058C059D05A8F31F910F91FF90EF9031
:10032000DF90CF90BF90AF900895019751F0880F64
:10033000991F880F991F02972FB7F8940197F1F72B
:100340002FBF08957894109210011092110110920D
:1003500012011092130184B5826084BD84B581605E
:1003600084BD85B5826085BD85B5816085BDEEE6BD
:10037000F0E0808181608083E1E8F0E0808182604C
:100380008083808181608083E0E8F0E0808181600B
:100390008083E1EBF0E0808184608083E0EBF0E03B
:1003A000808181608083EAE7F0E0808184608083DF
:1003B0008081826080838081816080838081806889
:1003C00080831092C1000895282F3327C9018557D3
:1003D0009F4FFC01949129583F4FF9018491882344
:1003E00081F0E82FFF27E859FF4FE491FF276623AC
:1003F00029F4808190958923808308958081892BB9
:1004000080830895482F5527CA0181569F4FFC01CC
:100410002491CA0185579F4FFC01949149585F4F21
:10042000FA013491332319F480E090E008952223F7
:1004300031F1233021F4809180008F7705C0243082
:1004400031F4809180008F7D8093800018C021302E
:1004500019F484B58F7704C0223021F484B58F7DE0
:1004600084BD0DC0263021F48091B0008F7705C087
:10047000273029F48091B0008F7D8093B000E32F66
:10048000FF27EE58FF4FE491FF27808120E030E006
:10049000892311F021E030E0C9010895482F552744
:1004A000CA0181569F4FFC012491CA0185579F4F75
:1004B000FC01949149585F4FFA0134913323C1F103
:1004C000222331F1233021F4809180008F7705C001
:1004D000243031F4809180008F7D8093800018C09B
:1004E000213019F484B58F7704C0223021F484B50B
:1004F0008F7D84BD0DC0263021F48091B0008F77B0
:1005000005C0273029F48091B0008F7D8093B00022
:10051000E32FFF27E359FF4FE491FF27662329F4D8
:10052000808190958923808308958081892B8083A1
:100530000895EF92FF920F931F937B018C0122E0AD
:1005400030E040E050E00E946104205C3D4B404FB1
:100550005F4FCA01B901A80197010E9461042150AF
:10056000304040405040BB2757FDBA95A52F942FEF
:10057000832F2F5F3F4F4F4F5F4F8093C500215018
:100580002093C400E1ECF0E0808180618083808171
:10059000886080838081806880831F910F91FF90A5
:1005A000EF900895982F8091C00085FFFCCF909325
:1005B000C600089580910C0190910D0120910E01CB
:1005C00030910F01821B930B80589F4F60E870E0C1
:1005D0000E942C04089540910E0150910F018091CA
:1005E0000C0190910D018417950719F48FEF9FEF7F
:1005F0000895FA01EC5EFE4F2081CA01019660E881
:1006000070E00E942C0490930F0180930E01822FC2
:100610009927089580910E0190910F0190930D01FB
:1006200080930C0108951F920F920FB60F92112420
:100630002F933F934F935F936F937F938F939F93EA
:10064000AF93BF93EF93FF934091C600E0910C01ED
:10065000F0910D01CF01019660E870E00E942C043A
:100660009C0180910E0190910F012817390739F0F4
:10067000EC5EFE4F408330930D0120930C01FF91FF
:10068000EF91BF91AF919F918F917F916F915F910A
:100690004F913F912F910F900FBE0F901F90189583
:1006A0000895982F8091C00085FFFCCF9093C600DD
:1006B00008952F923F924F925F926F927F928F9206
:1006C0009F92AF92BF92CF92DF92EF92FF920F93E1
:1006D0001F93CF93DF93CDB7DEB7A0970FB6F894F3
:1006E000DEBF0FBECDBF6B017C0129013A01611550
:1006F00071058105910541F48091C00085FFFCCF13
:1007000080E38093C60041C08824992454011E01CF
:100710000894211C311C8101080D191DC701B60167
:10072000A30192010E943F04F80160830894811C98
:10073000911CA11CB11CC701B601A30192010E942A
:100740003F0469017A01211531054105510519F769
:100750009E012F5F3F4F14C0089481089108A108A3
:10076000B108F901E80DF91DE081EA3010F4E05D0F
:1007700001C0E95C8091C00085FFFCCFE093C6001A
:1007800081149104A104B10439F7A0960FB6F8942E
:10079000DEBF0FBECDBFDF91CF911F910F91FF90B4
:1007A000EF90DF90CF90BF90AF909F908F907F9011
:1007B0006F905F904F903F902F90089520E130E030
:1007C00040E050E00E945903089528E030E040E006
:1007D00050E00E945903089522E030E040E050E0EC
:1007E0000E94590308958091C00085FFFCCF8AE0E4
:1007F0008093C6000895EF92FF920F931F937B01A1
:100800008C0197FF0FC08091C00085FFFCCF8DE267
:100810008093C60010950095F094E094E11CF11CC3
:10082000011D111D2AE030E040E050E0C801B70191
:100830000E9459031F910F91FF90EF900895FC01C2
:1008400007C08091C00085FFFCCF31969093C60011
:1008500090819923B1F7089597FB092E07260AD0B6
:1008600077FD04D049D006D000201AF47095619528
:100870007F4F0895F6F7909581959F4F0895A1E2D7
:100880001A2EAA1BBB1BFD010DC0AA1FBB1FEE1F0A
:10089000FF1FA217B307E407F50720F0A21BB30B55
:1008A000E40BF50B661F771F881F991F1A9469F7D1
:1008B00060957095809590959B01AC01BD01CF012D
:1008C000089597FB092E05260ED057FD04D0D7DFDB
:1008D0000AD0001C38F450954095309521953F4F33
:1008E0004F4F5F4F0895F6F79095809570956195FD
:1008F0007F4F8F4F9F4F0895AA1BBB1B51E107C02D
:10090000AA1FBB1FA617B70710F0A61BB70B881F9F
:10091000991F5A95A9F780959095BC01CD0108952E
:02092000FFCF07
:0609220007000D000A00B1
:00000001FF
