:100000000C945A000C9475000C9475000C947500B7
:100010000C9475000C9475000C9475000C9475008C
:100020000C9475000C9475000C9475000C9475007C
:100030000C9475000C9475000C9475000C9475006C
:100040000C949F000C9475000C9475000C94750032
:100050000C9475000C9475000C9475000C9475004C
:100060000C9475000C94750000000007000201005C
:100070000003040600000000000000000102040864
:100080001020408001020408102001020408102002
:10009000040404040404040402020202020203032E
:1000A000030303030000232629000025282B00005A
:1000B00024272A0011241FBECFEFD4E0DEBFCDBF1E
:1000C00011E0A0E0B1E0E2E5F4E002C005900D929D
:1000D000A230B107D9F711E0A2E0B1E001C01D9252
:1000E000A630B107E1F70C9494000C94000061E095
:1000F000809100010E945501089561E08091000106
:100100000E94BC0168EE73E080E090E00E94DC0099
:1001100060E0809100010E94BC0168EE73E080E025
:1001200090E00E94DC000895CFEFD4E0DEBFCDBFA9
:100130000E940B010E9477000E947D00FDCF1F925C
:100140000F920FB60F9211248F939F93AF93BF938B
:100150008091020190910301A0910401B0910501E9
:100160000196A11DB11D8093020190930301A093FC
:100170000401B0930501BF91AF919F918F910F90B2
:100180000FBE0F901F9018956091020170910301AE
:10019000809104019091050127E0660F771F881F69
:1001A000991F2A95D1F72DE730E040E050E00E94FA
:1001B0000702CA01B9010895AF92BF92CF92DF92B0
:1001C000EF92FF920F931F935B016C010E94C4009A
:1001D0007B018C010E94C4006E197F09800B910B7A
:1001E0006A157B058C059D05A8F31F910F91FF9063
:1001F000EF90DF90CF90BF90AF900895019751F0AE
:10020000880F991F880F991F02972FB7F8940197AD
:10021000F1F72FBF08957894109202011092030114
:10022000109204011092050184B5826084BD84B5EA
:10023000816084BD85B5826085BD85B5816085BDE1
:10024000EEE6F0E0808181608083E1E8F0E080818B
:1002500082608083808181608083E0E8F0E080813B
:1002600081608083E1EBF0E0808184608083E0EB5B
:10027000F0E0808181608083ECE7F0E080818F771F
:100280008083808180648083EAE7F0E080818460FD
:10029000808380818260808380818160808380818F
:1002A000806880831092C1000895282F3327C901E8
:1002B00084589F4FFC01949120573F4FF90184913E
:1002C000882381F0E82FFF27E255FF4FE491FF27B5
:1002D000662329F480819095892380830895808105
:1002E000892B80830895482F5527CA0188599F4F2D
:1002F000FC012491CA0184589F4FFC0194914057FE
:100300005F4FFA0134913323A1F1222331F12330DD
:1003100021F4809180008F7705C0243031F48091E2
:1003200080008F7D8093800018C0213019F484B53F
:100330008F7704C0223021F484B58F7D84BD0DC039
:10034000263021F48091B0008F7705C0273029F442
:100350008091B0008F7D8093B000E32FFF27EC5594
:10036000FF4FE491FF278081892319F081E090E01D
:10037000089580E090E00895482F5527CA018859D4
:100380009F4FFC012491CA0184589F4FFC01949116
:1003900040575F4FFA0134913323C1F1222331F1E9
:1003A000233021F4809180008F7705C0243031F410
:1003B000809180008F7D8093800018C0213019F4D7
:1003C00084B58F7704C0223021F484B58F7D84BD3D
:1003D0000DC0263021F48091B0008F7705C0273002
:1003E00029F48091B0008F7D8093B000E32FFF2728
:1003F000E755FF4FE491FF27662329F4808190950C
:100400008923808308958081892B80830895A1E2C8
:100410001A2EAA1BBB1BFD010DC0AA1FBB1FEE1F7E
:10042000FF1FA217B307E407F50720F0A21BB30BC9
:10043000E40BF50B661F771F881F991F1A9469F745
:1004400060957095809590959B01AC01BD01CF01A1
:0204500008950D
:020452000D009B
:00000001FF
