:100000000C945B000C9481000C9481000C94810092
:100010000C9481000C9481000C9481000C9481005C
:100020000C9481000C9481000C9481000C9481004C
:100030000C9481000C9481000C9481000C9481003C
:100040000C94B1010C9481000C9493030C948100E6
:100050000C9481000C9481000C9481000C9481001C
:100060000C9481000C948100B00100000007000294
:10007000010000030406000000000000000001026F
:100080000408102040800102040810200102040826
:100090001020040404040404040402020202020204
:1000A0000303030303030000232629000025282B54
:1000B000000024272A0011241FBECFEFD4E0DEBFAA
:1000C000CDBF11E0A0E0B1E0EEE1FAE002C00590A2
:1000D0000D92AA30B107D9F711E0AAE0B1E001C052
:1000E0001D92A939B107E1F710E0CAE6D0E004C0DB
:1000F0002297FE010E940B05C836D107C9F70C9460
:10010000E0000C9400000E94D60120910E01309175
:100110000F01442737FD4095542F621B730B840B4E
:10012000950B2091040130910501442737FD40953E
:10013000542F6217730784079507B0F061E0809130
:1001400002010E94CE0280910001909101010E9463
:10015000100260E0809102010E94CE020E94D6014E
:1001600070930F0160930E01089588E090E09093E2
:100170000B0180930A018091080190910901CC96AE
:100180009093010180930001089561E08091020144
:100190000E946702809100019091010190930D01EE
:1001A00080930C0140E855E260E070E080E191E06E
:1001B0000E94ED0008950E94B5000E9483000895FA
:1001C000CFEFD4E0DEBFCDBF0E941D020E94C5006C
:1001D0000E94DB00FDCF08950895CB01BA010E9473
:1001E000190308950E945A03992708950E946B03EA
:1001F00008950E948A030895862F0E94D1030895CE
:10020000CB010E94D8030895862F0E94D103089540
:100210000F931F938C016DE00E94FC006AE0C801FF
:100220000E94FC001F910F9108950F931F938C0162
:100230000E94FC00C8010E9408011F910F910895BF
:100240000F931F938C010E940001C8010E940801B6
:100250001F910F9108950F931F938C010E94040129
:10026000C8010E9408011F910F910895CB01BA01A6
:100270003327442755270E94E50308952AE00E946A
:10028000360108950F931F938C010E943E01C8010F
:100290000E9408011F910F910895AB0166277727EF
:1002A0000E943E010895EF92FF920F931F93CF9308
:1002B000DF93EC017A018B0177FF0BC06DE20E94A6
:1002C000FC0010950095F094E094E11CF11C011DD8
:1002D000111D2AE0B801A701CE010E943601DF916D
:1002E000CF911F910F91FF90EF9008950F931F935F
:1002F0008C010E945301C8010E9408011F910F91B7
:1003000008952115310521F4642F0E94FC00089501
:100310002A30310519F40E94530108950E943601D4
:1003200008950F931F938C010E948101C8010E94C0
:1003300008011F910F910895AB01662757FD609545
:10034000762F0E94530108950F931F938C010E94F2
:100350009C01C8010E9408011F910F910895089502
:1003600008951F920F920FB60F9211248F939F93AF
:10037000AF93BF938091150190911601A091170141
:10038000B09118010196A11DB11D809315019093A4
:100390001601A0931701B0931801BF91AF919F91DF
:1003A0008F910F900FBE0F901F90189560911501BF
:1003B00070911601809117019091180127E0660F46
:1003C000771F881F991F2A95D1F72DE730E040E06D
:1003D00050E00E94B804CA01B9010895AF92BF92DB
:1003E000CF92DF92EF92FF920F931F935B016C010C
:1003F0000E94D6017B018C010E94D6016E197F09F3
:10040000800B910B6A157B058C059D05A8F31F9148
:100410000F91FF90EF90DF90CF90BF90AF90089535
:10042000019751F0880F991F880F991F02972FB7D6
:10043000F8940197F1F72FBF089578941092150161
:1004400010921601109217011092180184B5826063
:1004500084BD84B5816084BD85B5826085BD85B568
:10046000816085BDEEE6F0E0808181608083E1E817
:10047000F0E0808182608083808181608083E0E819
:10048000F0E0808181608083E1EBF0E08081846036
:100490008083E0EBF0E0808181608083ECE7F0E036
:1004A00080818F778083808180648083EAE7F0E0B9
:1004B000808184608083808182608083808181608C
:1004C00080838081806880831092C1000895282FE6
:1004D0003327C90182589F4FFC0194912E563F4FFC
:1004E000F9018491882381F0E82FFF27E055FF4F21
:1004F000E491FF27662329F48081909589238083E6
:1005000008958081892B80830895482F5527CA013B
:1005100086599F4FFC012491CA0182589F4FFC01CC
:1005200094914E565F4FFA0134913323A1F1222367
:1005300031F1233021F4809180008F7705C0243081
:1005400031F4809180008F7D8093800018C021302D
:1005500019F484B58F7704C0223021F484B58F7DDF
:1005600084BD0DC0263021F48091B0008F7705C086
:10057000273029F48091B0008F7D8093B000E32F65
:10058000FF27EA55FF4FE491FF278081892319F067
:1005900081E090E0089580E090E00895482F55278D
:1005A000CA0186599F4FFC012491CA0182589F4F6E
:1005B000FC0194914E565F4FFA0134913323C1F1FF
:1005C000222331F1233021F4809180008F7705C000
:1005D000243031F4809180008F7D8093800018C09A
:1005E000213019F484B58F7704C0223021F484B50A
:1005F0008F7D84BD0DC0263021F48091B0008F77AF
:1006000005C0273029F48091B0008F7D8093B00021
:10061000E32FFF27E555FF4FE491FF27662329F4D9
:10062000808190958923808308958081892B8083A0
:100630000895EF92FF920F931F937B018C0122E0AC
:1006400030E040E050E00E94DA04205C3D4B404F37
:100650005F4FCA01B901A80197010E94DA04215035
:10066000304040405040BB2757FDBA95A52F942FEE
:10067000832F2F5F3F4F4F4F5F4F8093C500215017
:100680002093C400E1ECF0E0808180618083808170
:10069000886080838081806880831F910F91FF90A4
:1006A000EF900895982F8091C00085FFFCCF909324
:1006B000C6000895809113019091140120911101B9
:1006C00030911201821B930B80589F4F60E870E0BD
:1006D0000E94A5040895409111015091120180914A
:1006E0001301909114018417950719F48FEF9FEF70
:1006F0000895FA01E75EFE4F2081CA01019660E885
:1007000070E00E94A5049093120180931101822F42
:1007100099270895809111019091120190931401ED
:100720008093130108951F920F920FB60F92112418
:100730002F933F934F935F936F937F938F939F93E9
:10074000AF93BF93EF93FF934091C600E0911301E5
:10075000F0911401CF01019660E870E00E94A504B9
:100760009C0180911101909112012817390739F0ED
:10077000E75EFE4F40833093140120931301FF91F5
:10078000EF91BF91AF919F918F917F916F915F9109
:100790004F913F912F910F900FBE0F901F90189582
:1007A00008950E94520308958AE00E94D10308959B
:1007B000CF93DF93EC0103C021960E94D10388817F
:1007C0008823D1F7DF91CF9108952F923F924F92D6
:1007D0005F926F927F928F929F92AF92BF92CF92D1
:1007E000DF92EF92FF920F931F93CF93DF93CDB7DA
:1007F000DEB7A0970FB6F894DEBF0FBECDBF6B017A
:100800007C0119012A01611571058105910521F409
:1008100080E30E94D1034BC06624772443015E012C
:100820000894A11CB11C8501060D171DC701B60156
:10083000A20191010E94B804F80160830894611C30
:10084000711C811C911CC701B601A20191010E947B
:10085000B80469017A01211531054105510519F7DF
:1008600073010894E108F108EA0CFB1CAA24BB24DC
:10087000650111C0F70180818A3010F4805D01C0EC
:10088000895C0E94D1030894A108B108C108D1086D
:100890000894E108F10888279927DC01861997094F
:1008A000A809B909A816B906CA06DB0619F7A09661
:1008B0000FB6F894DEBF0FBECDBFDF91CF911F9171
:1008C0000F91FF90EF90DF90CF90BF90AF909F90EF
:1008D0008F907F906F905F904F903F902F900895F2
:1008E000EF92FF920F931F937B018C0197FF0BC038
:1008F0008DE20E94D10310950095F094E094E11CE4
:10090000F11C011D111D2AE030E040E050E0C8015B
:10091000B7010E94E5031F910F91FF90EF9008959A
:1009200020E130E040E050E00E94E503089528E037
:1009300030E040E050E00E94E503089522E030E01E
:1009400040E050E00E94E503089597FB092E07263A
:100950000AD077FD04D049D006D000201AF4709553
:1009600061957F4F0895F6F7909581959F4F089573
:10097000A1E21A2EAA1BBB1BFD010DC0AA1FBB1FA3
:10098000EE1FFF1FA217B307E407F50720F0A21B15
:10099000B30BE40BF50B661F771F881F991F1A9482
:1009A00069F760957095809590959B01AC01BD01AC
:1009B000CF01089597FB092E05260ED057FD04D0D0
:1009C000D7DF0AD0001C38F450954095309521951A
:1009D0003F4F4F4F5F4F0895F6F790958095709574
:1009E00061957F4F8F4F9F4F0895AA1BBB1B51E10D
:1009F00007C0AA1FBB1FA617B70710F0A61BB70B8F
:100A0000881F991F5A95A9F780959095BC01CD0133
:0E0A10000895EE0FFF1F0590F491E02D09945C
:0A0A1E00F40102001400C409F40101
:00000001FF
