:100000000C9436000C94DB010C9408020C945C00F8
:100010000C945C000C945C000C945C000C945C00F0
:100020000C945C000C945C000C945C000C945C00E0
:100030000C945C000C945C000C945C000C945C00D0
:100040000C94F1030C945C000C94DF020C945C00A3
:100050000C945C000C945C000C945C000C945C00B0
:100060000C945C000C945C002A07F60711241FBE58
:10007000CFEFD4E0DEBFCDBF11E0A0E0B1E0E0E51E
:10008000F2E102C005900D92AA3AB107D9F712E049
:10009000AAEAB1E001C01D92A833B107E1F710E070
:1000A000CCE6D0E004C02297FE010E942409C836A5
:1000B000D107C9F70C945C040C9400000F931F93B4
:1000C000CF93DF938B0160E070E0809114019091F9
:1000D00015010E94F20460E070E08091120190919D
:1000E00013010E94F204C0910001D091010109C0E6
:1000F000B80161707070CE010E94F20415950795E9
:10010000219680910E0190910F018C179D0784F725
:1001100060E070E080911001909111010E94F20462
:1001200081E090E00E94500461E070E08091100155
:10013000909111010E94F20481E090E00E9450042D
:1001400060E070E080911001909111010E94F20432
:1001500082E090E00E9450046AE070E080E090E06D
:100160000E942E04DF91CF911F910F9108950F935C
:100170001F93CF93DF938C01C0911001D091110197
:1001800006C061E070E0CE010E94B8042196809123
:100190001401909115018C179D079CF764E670E09F
:1001A00080E090E00E942E0460E370E0C8010E94AD
:1001B0005E0060E470E080E090E00E942E0460E366
:1001C00070E0C8010E945E0062E370E080E090E0B1
:1001D0000E942E0460E370E0C8010E945E0062E3AA
:1001E00070E080E090E00E942E046EE070E0C801B4
:1001F0000E945E0064E170E080E090E00E942E04C6
:1002000066E070E0C8010E945E0064E170E080E09A
:1002100090E00E942E0461E070E0C8010E945E0040
:1002200064E670E080E090E00E942E0460E870E0F8
:10023000C8010E945E0064E170E080E090E00E94EE
:100240002E04DF91CF911F910F9108950895089585
:100250000F931F93CF93DF938B0161E070E0809148
:100260001401909115010E94F20460E070E0809109
:100270001201909113010E94F204C0910001D091EB
:10028000010109C0B80161707070CE010E94F204D2
:1002900015950795219680910E0190910F018C176D
:1002A0009D0784F760E070E080911001909111014A
:1002B0000E94F20481E090E00E94500461E070E04E
:1002C00080911001909111010E94F20481E090E070
:1002D0000E94500460E070E0809110019091110143
:1002E0000E94F20461E070E080E090E00E942E0441
:1002F000DF91CF911F910F910895EF92FF920F938D
:100300001F93CF93DF937C01EB0100E010E009C065
:10031000AC0FBD1F6C91772767FD7095C7010E94D8
:100320002801A02FBB270F5F1F4FFE010190002067
:10033000E9F73197EC1BFD0BAE17BF0748F3DF91D0
:10034000CF911F910F91FF90EF90089561E070E0C1
:100350000E945E0008958230E8F4E82FFF27EE0F38
:10036000FF1FE655FE4F71836083882341F480911F
:1003700069008C7F842B80936900E89A08958091AE
:100380006900837F440F551F440F551F842B8093B2
:100390006900E99A0895823068F4882311F4E89896
:1003A00001C0E998E82FFF27EE0FFF1FE655FE4F2B
:1003B0001182108208951F920F920FB60F9211248E
:1003C0002F933F934F935F936F937F938F939F935D
:1003D000AF93BF93EF93FF938091AA019091AB01EC
:1003E000892B29F0E091AA01F091AB010995FF91C9
:1003F000EF91BF91AF919F918F917F916F915F919D
:100400004F913F912F910F900FBE0F901F90189515
:100410001F920F920FB60F9211242F933F934F9379
:100420005F936F937F938F939F93AF93BF93EF935C
:10043000FF938091AC019091AD01892B29F0E0915F
:10044000AC01F091AD010995FF91EF91BF91AF9192
:100450009F918F917F916F915F914F913F912F91DC
:100460000F900FBE0F901F901895880F991F880F3F
:10047000991FE0914E01F0914F01E80FF91F808123
:1004800091810895880F991F880F991FE0914E015F
:10049000F0914F01E80FF91F828193810895880F31
:1004A000991FE0913001F0913101E80FF91F80812F
:1004B00091810895880F991F880F991FE091160167
:1004C000F0911701E80FF91F828193810895EF924F
:1004D000FF920F931F937B018C0122E030E040E0FC
:1004E00050E00E94F308205C3D4B404F5F4FCA0133
:1004F000B901A80197010E94F30821503040404003
:100500005040BB2757FDBA95A52F942F832F2F5FFF
:100510003F4F4F4F5F4F8093C50021502093C40041
:10052000E1ECF0E08081806180838081886080835D
:100530008081806880831F910F91FF90EF900895D4
:10054000982F8091C00085FFFCCF9093C60008953E
:100550008091B0019091B1012091AE013091AF0135
:10056000821B930B60E870E00E94BE0808954091E2
:10057000AE015091AF018091B0019091B10184170B
:10058000950719F48FEF9FEF0895FA01E854FE4F95
:100590002081CA01019660E870E00E94BE08909335
:1005A000AF018093AE01822F992708958091AE010B
:1005B0009091AF019093B1018093B00108951F9283
:1005C0000F920FB60F9211242F933F934F935F9387
:1005D0006F937F938F939F93AF93BF93EF93FF930B
:1005E0004091C600E091B001F091B101CF010196B8
:1005F00060E870E00E94BE089C018091AE0190917D
:10060000AF012817390739F0E854FE4F4083309383
:10061000B1012093B001FF91EF91BF91AF919F91F4
:100620008F917F916F915F914F913F912F910F909B
:100630000FBE0F901F90189508950E94A002089574
:100640008AE00E941D030895CF93DF93EC0103C05D
:1006500021960E941D0388818823D1F7DF91CF91D5
:1006600008952F923F924F925F926F927F928F9256
:100670009F92AF92BF92CF92DF92EF92FF920F9331
:100680001F93CF93DF93CDB7DEB7A0970FB6F89443
:10069000DEBF0FBECDBF6B017C0119012A016115C0
:1006A00071058105910521F480E30E941D034BC073
:1006B0006624772443015E010894A11CB11C8501C6
:1006C000060D171DC701B601A20191010E94D108B4
:1006D000F80160830894611C711C811C911CC70186
:1006E000B601A20191010E94D10869017A01211588
:1006F00031054105510519F773010894E108F10826
:10070000EA0CFB1CAA24BB24650111C0F7018081FF
:100710008A3010F4805D01C0895C0E941D0308943A
:10072000A108B108C108D1080894E108F108882798
:100730009927DC0186199709A809B909A816B906ED
:10074000CA06DB0619F7A0960FB6F894DEBF0FBEF7
:10075000CDBFDF91CF911F910F91FF90EF90DF9070
:10076000CF90BF90AF909F908F907F906F905F9051
:100770004F903F902F900895EF92FF920F931F9309
:100780007B018C0197FF0BC08DE20E941D03109529
:100790000095F094E094E11CF11C011D111D2AE06C
:1007A00030E040E050E0C801B7010E9431031F91E2
:1007B0000F91FF90EF90089520E130E040E050E08D
:1007C0000E943103089528E030E040E050E00E94AC
:1007D0003103089522E030E040E050E00E94310310
:1007E00008951F920F920FB60F9211248F939F932B
:1007F000AF93BF938091B4019091B501A091B601E0
:10080000B091B7010196A11DB11D8093B4019093E1
:10081000B501A093B601B093B701BF91AF919F917D
:100820008F910F900FBE0F901F9018956091B4019B
:100830007091B5018091B6019091B701E7E0660F24
:10084000771F881F991FEA95D1F72DE730E040E028
:1008500050E00E94D108CA01B9010895AF92BF9239
:10086000CF92DF92EF92FF920F931F935B016C0187
:100870000E9416047B018C010E9416046E197F09E8
:10088000800B910B6A157B058C059D05A8F31F91C4
:100890000F91FF90EF90DF90CF90BF90AF900895B1
:1008A000019749F0880F991F880F991F0297F894B4
:1008B0000197F1F778940895CFEFD4E0DEBFCDBF74
:1008C00078941092B4011092B5011092B601109272
:1008D000B70184B5826084BD84B5816084BD85B56F
:1008E000826085BD85B5816085BD80916E00816027
:1008F00080936E008091810082608093810080915E
:10090000810081608093810080918000816080936C
:1009100080008091B10084608093B1008091B0002C
:1009200081608093B00080917C008F7780937C0001
:1009300080917C00806480937C0080917A00846048
:1009400080937A0080917A00826080937A0080910F
:100950007A00816080937A0080917A008068809329
:100960007A001092C1000E94F0060E94FB06FDCFA3
:10097000CF93DF93880F991F880F991FA0914E0185
:10098000B0914F01A80FB91FED91FC9111973097CD
:1009900031F1EE0FFF1FED014A815B81672B81F47E
:1009A000E456FE4F0190F081E02D20A181E090E01F
:1009B00002C0880F991F4A95E2F7809528230EC040
:1009C000E456FE4F0190F081E02D20A181E090E0FF
:1009D00002C0880F991F4A95E2F7282B20A3DF91C8
:1009E000CF910895CF93DF939C01880F991F880FB3
:1009F000991FA0914E01B0914F01A80FB91F4D91C1
:100A00005C9111974115510509F45CC0220F331F09
:100A1000E0913001F0913101E20FF31F0190F0817C
:100A2000E02DE230F10521F4809180008F7706C03F
:100A3000E330F10531F4809180008F7D8093800058
:100A40001AC0309719F484B58F7705C0E130F105ED
:100A500021F484B58F7D84BD0EC0E530F10521F40D
:100A60008091B0008F7705C0369729F48091B0004F
:100A70008F7D8093B000FA01EE0FFF1FED014A81D8
:100A80005B81672B81F4EE56FE4F0190F081E02DE3
:100A900020A181E090E002C0880F991F4A95E2F7FB
:100AA000809528230EC0EE56FE4F0190F081E02D78
:100AB00020A181E090E002C0880F991F4A95E2F7DB
:100AC000282B20A3DF91CF9108959F92AF92BF92E0
:100AD000CF92DF92EF92FF920F931F93CF93DF930A
:100AE0006C017B015A01922EC0E0D0E007E010E0DB
:100AF000692D7727A114B10439F40C2E02C0759525
:100B000067950A94E2F706C0002E02C075956795B6
:100B10000A94E2F761707070C6010E94F20461E00D
:100B200070E0C7010E94F20460E070E0C7010E941B
:100B3000F204219601501040C830D105C9F6DF916A
:100B4000CF911F910F91FF90EF90DF90CF90BF90CA
:100B5000AF909F9008950F931F93CF93DF938C01D5
:100B6000EB0161E070E00E94B804C801880F991F92
:100B7000E0913001F0913101E80FF91F0190F0810F
:100B8000E02DE230F10551F480918000806880937F
:100B90008000D0938900C09388003CC0E330F10509
:100BA00051F480918000806280938000D0938B000C
:100BB000C0938A002FC0309729F484B5806884BD23
:100BC000C7BD28C0E130F10529F484B5806284BD39
:100BD000C8BD20C0E530F10541F48091B0008068C7
:100BE0008093B000C093B30015C0369741F4809154
:100BF000B00080628093B000C093B4000BC0C038D6
:100C0000D1051CF460E070E002C061E070E0C80152
:100C10000E94F204DF91CF911F910F910895CF931D
:100C2000DF939C01880F991F880F991FC0914E0177
:100C3000D0914F01C80FD91FA881B981109719F41D
:100C400080E090E045C0220F331FE0913001F09129
:100C50003101E20FF31F0190F081E02DE230F10548
:100C600021F4809180008F7706C0E330F10531F4E4
:100C7000809180008F7D809380001AC0309719F496
:100C800084B58F7705C0E130F10521F484B58F7DFF
:100C900084BD0EC0E530F10521F48091B0008F775E
:100CA00005C0369729F48091B0008F7D8093B00005
:100CB000AA0FBB1FA857BE4FED91FC9180A19927A9
:100CC0000A8002C0959587950A94E2F7817090702A
:100CD000DF91CF910895CF93DF93880F991F880FED
:100CE000991FA0914E01B0914F01A80FB91FED912E
:100CF000FC911197EE0FFF1FE857FE4F0190F08116
:100D0000E02DED018A819B81A1E0B0E0082E02C0B8
:100D1000AA0FBB1F0A94E2F720E030E0672B11F026
:100D200021E030E0B90102C0660F771F8A95E2F733
:100D3000EF01A09680A199278A239B238617970706
:100D4000C9F720E030E040E050E004C02F5F3F4FA3
:100D50004F4F5F4F888199278A239B2386179707D8
:100D6000A9F3CA01B90124E130E040E050E00E945B
:100D70009F0827E130E040E050E00E94D108CA011E
:100D8000B901DF91CF91089520917C00207F880FD9
:100D9000991F880F991FE0911601F0911701E80F34
:100DA000F91F82818F70282B20937C0061E070E016
:100DB00080E090E00E942E0480917A00806480930D
:100DC0007A0080917A0086FDFCCF20917800809196
:100DD00079009927982F88273327822B932B089502
:100DE00082EB91E00E94B70061E070E08DE090E05E
:100DF0000E94F20408950F931F9302EB11E0C801C3
:100E00000E94A60168EE73E080E090E00E942E044C
:100E100061E670E0C8010E94280162E670E0C80146
:100E20000E94280163E670E0C8010E94280168EE74
:100E300073E080E090E00E942E041F910F910895CE
:100E40006F5F7F4F31F4019721F482EB91E00E94B4
:100E5000270108956FEF7FEF81E090E00E94200767
:100E6000089508950895CB01BA010E94670208957C
:100E70000E94A802992708950E94B70208950E942F
:100E8000D6020895862F0E941D030895CB010E946B
:100E900024030895862F0E941D0308950F931F9326
:100EA0008C016DE00E9442076AE0C8010E9442077F
:100EB0001F910F9108950F931F938C010E94420779
:100EC000C8010E944E071F910F9108950F931F9321
:100ED0008C010E944607C8010E944E071F910F9186
:100EE00008950F931F938C010E944A07C8010E9426
:100EF0004E071F910F910895CB01BA013327442764
:100F000055270E94310308952AE00E947C07089526
:100F10000F931F938C010E948407C8010E944E0703
:100F20001F910F910895AB01662777270E948407D0
:100F30000895EF92FF920F931F93CF93DF93EC01ED
:100F40007A018B0177FF0BC06DE20E94420710957A
:100F50000095F094E094E11CF11C011D111D2AE0A4
:100F6000B801A701CE010E947C07DF91CF911F91AC
:100F70000F91FF90EF9008950F931F938C010E94A3
:100F80009907C8010E944E071F910F9108952115DE
:100F9000310521F4642F0E94420708952A3031055B
:100FA00019F40E94990708950E947C0708950F93F1
:100FB0001F938C010E94C707C8010E944E071F9112
:100FC0000F910895AB01662757FD6095762F0E941B
:100FD000990708950F931F938C010E94E207C8019F
:100FE0000E944E071F910F9108950895089500974C
:100FF00011F00E9494080895EF92FF920F931F93AF
:101000007B018C01611571058105910529F460E072
:1010100070E080E090E00CC00E948F08AA2797FD46
:10102000A095BA2FBC01CD01A80197010E94F30839
:101030001F910F91FF90EF900895EF92FF920F9301
:101040001F937B018C01621773078407950764F473
:10105000261B370B480B590BCA01B9010E94FC072C
:10106000E60EF71E081F191FC801B7011F910F9147
:10107000FF90EF900895AF92BF92CF92DF92EF92E0
:10108000FF920F931F93CF93DF93EC01E880F980D9
:101090000A811B81C801B7012DE133EF41E050E027
:1010A0000E94D10827EA31E440E050E00E949F0806
:1010B0005B016C01C801B7012DE133EF41E050E065
:1010C0000E94D108CA01B90124E13BE040E050E0B0
:1010D0000E949F08A61AB70AC80AD90A1A141B0444
:1010E0001C041D0444F08FEF9FEFAFEFBFE7A80E85
:1010F000B91ECA1EDB1EA882B982CA82DB82C50164
:101100009F77DF91CF911F910F91FF90EF90DF902C
:10111000CF90BF90AF9008950E943B08089586EA53
:1011200091E00E943B080895AA27BB278093A6015F
:101130009093A701A093A801B093A9010895629F7D
:10114000D001739FF001829FE00DF11D649FE00DBF
:10115000F11D929FF00D839FF00D749FF00D659F20
:10116000F00D9927729FB00DE11DF91F639FB00D1F
:10117000E11DF91FBD01CF011124089597FB092E30
:1011800007260AD077FD04D049D006D000201AF4F3
:10119000709561957F4F0895F6F7909581959F4FD3
:1011A0000895A1E21A2EAA1BBB1BFD010DC0AA1FA8
:1011B000BB1FEE1FFF1FA217B307E407F50720F0C0
:1011C000A21BB30BE40BF50B661F771F881F991F3B
:1011D0001A9469F760957095809590959B01AC0184
:1011E000BD01CF01089597FB092E05260ED057FDAE
:1011F00004D0D7DF0AD0001C38F4509540953095C4
:1012000021953F4F4F4F5F4F0895F6F7909580958A
:10121000709561957F4F8F4F9F4F0895AA1BBB1B01
:1012200051E107C0AA1FBB1FA617B70710F0A61BE6
:10123000B70B881F991F5A95A9F780959095BC0107
:10124000CD010895EE0FFF1F0590F491E02D099454
:1012500003000400050006000700080009000A005A
:1012600002000B000C001801030000000300010045
:101270000300020003000300030004000300050054
:101280003201FFFFFFFFFFFF0600FFFF010000002C
:10129000FFFFFFFF020003000500FFFFFFFF5001FB
:1012A0000400000004000100040002000400030028
:1012B0000400040004000500040006000400070008
:1012C0000200000002000100020002000200030010
:1012D0000200040002000500FFFFFFFF03000600FC
:1012E0000900FFFFFFFF050008000B00FFFFFFFFE5
:0A12F000040007000A0001000000DE
:00000001FF
