:100000000C945B000C9481000C9481000C94810092
:100010000C9481000C9481000C9481000C9481005C
:100020000C9481000C9481000C9481000C9481004C
:100030000C9481000C9481000C9481000C9481003C
:100040000C94E5010C9481000C94C7030C9481007E
:100050000C9481000C9481000C9481000C9481001C
:100060000C9481000C948100E40100000007000260
:10007000010000030406000000000000000001026F
:100080000408102040800102040810200102040826
:100090001020040404040404040402020202020204
:1000A0000303030303030000232629000025282B54
:1000B000000024272A0011241FBECFEFD4E0DEBFAA
:1000C000CDBF11E0A0E0B1E0E6E8FAE002C00590A3
:1000D0000D92A432B107D9F711E0A4E2B1E001C05A
:1000E0001D92A13BB107E1F710E0CAE6D0E004C0E1
:1000F0002297FE010E943F05C836D107C9F70C942C
:1001000014010C94000061E080911C010E949B028C
:1001100061E080911A010E949B0260E875E280E034
:1001200090E00E944D036EE171E088E291E00E9450
:1001300054010895CF93DF9360E080911A010E94EB
:10014000020388E291E00E942A01909301018093CA
:1001500000012FEF8F3F9207E9F0AC01662757FDB2
:100160006095762F20E030E088E291E00E94B501B2
:1001700060E070E08091260190912701892B11F4B5
:1001800061E070E0709327016093260180911C016B
:100190000E94020310922501109224013AC0EE5EE3
:1001A000FE4F808199272091000130910101821733
:1001B000930731F5C2E3D0E061E080911A010E941B
:1001C0000203E0912401F0912501EE0FFF1FEE5F85
:1001D000FE4F808191810E94440260E080911A016B
:1001E0000E940203E0912401F0912501EE0FFF1F10
:1001F000EE5FFE4F808191810E9444022197E1F6DB
:10020000809124019091250101969093250180937E
:100210002401E0912401F0912501E930F1050CF46D
:10022000BECFDF91CF910895CFEFD4E0DEBFCDBF39
:100230000E9451020E9483000E949A00FDCF0895FF
:100240000895CB01BA010E944D0308950E948E03C8
:10025000992708950E949F0308950E94BE03089560
:10026000862F0E9405040895CB010E940C04089576
:10027000862F0E94050408950F931F938C016DE053
:100280000E9430016AE0C8010E9430011F910F9165
:1002900008950F931F938C010E943001C8010E94A2
:1002A0003C011F910F9108950F931F938C010E94A1
:1002B0003401C8010E943C011F910F9108950F93D2
:1002C0001F938C010E943801C8010E943C011F91BC
:1002D0000F910895CB01BA013327442755270E9477
:1002E000190408952AE00E946A0108950F931F934C
:1002F0008C010E947201C8010E943C011F910F9164
:100300000895AB01662777270E9472010895EF9246
:10031000FF920F931F93CF93DF93EC017A018B0130
:1003200077FF0BC06DE20E94300110950095F094AC
:10033000E094E11CF11C011D111D2AE0B801A70188
:10034000CE010E946A01DF91CF911F910F91FF9022
:10035000EF9008950F931F938C010E948701C801AD
:100360000E943C011F910F9108952115310521F440
:10037000642F0E94300108952A30310519F40E943B
:10038000870108950E946A0108950F931F938C01BD
:100390000E94B501C8010E943C011F910F91089570
:1003A000AB01662757FD6095762F0E94870108955F
:1003B0000F931F938C010E94D001C8010E943C0141
:1003C0001F910F910895089508951F920F920FB6EF
:1003D0000F9211248F939F93AF93BF9380912D0120
:1003E00090912E01A0912F01B09130010196A11D95
:1003F000B11D80932D0190932E01A0932F01B093F6
:100400003001BF91AF919F918F910F900FBE0F90D0
:100410001F90189560912D0170912E0180912F01F0
:100420009091300127E0660F771F881F991F2A954A
:10043000D1F72DE730E040E050E00E94EC04CA0123
:10044000B9010895AF92BF92CF92DF92EF92FF92DF
:100450000F931F935B016C010E940A027B018C01C8
:100460000E940A026E197F09800B910B6A157B05A9
:100470008C059D05A8F31F910F91FF90EF90DF90E1
:10048000CF90BF90AF900895019751F0880F991FBA
:10049000880F991F02972FB7F8940197F1F72FBF94
:1004A0000895789410922D0110922E0110922F0130
:1004B0001092300184B5826084BD84B5816084BDB2
:1004C00085B5826085BD85B5816085BDEEE6F0E0CD
:1004D000808181608083E1E8F0E0808182608083B8
:1004E000808181608083E0E8F0E0808181608083AA
:1004F000E1EBF0E0808184608083E0EBF0E08081DC
:1005000081608083ECE7F0E080818F778083808159
:1005100080648083EAE7F0E080818460808380816A
:100520008260808380818160808380818068808315
:100530001092C1000895282F3327C90182589F4F78
:10054000FC0194912E563F4FF9018491882381F04C
:10055000E82FFF27E055FF4FE491FF27662329F49A
:10056000808190958923808308958081892B808361
:100570000895482F5527CA0186599F4FFC012491A1
:10058000CA0182589F4FFC0194914E565F4FFA0169
:1005900034913323A1F1222331F1233021F48091CE
:1005A00080008F7705C0243031F4809180008F7DEA
:1005B0008093800018C0213019F484B58F7704C06F
:1005C000223021F484B58F7D84BD0DC0263021F406
:1005D0008091B0008F7705C0273029F48091B0005A
:1005E0008F7D8093B000E32FFF27EA55FF4FE49102
:1005F000FF278081892319F081E090E0089580E051
:1006000090E00895482F5527CA0186599F4FFC0155
:100610002491CA0182589F4FFC0194914E565F4F1E
:10062000FA0134913323C1F1222331F1233021F433
:10063000809180008F7705C0243031F48091800054
:100640008F7D8093800018C0213019F484B58F7796
:1006500004C0223021F484B58F7D84BD0DC02630C6
:1006600021F48091B0008F7705C0273029F4809164
:10067000B0008F7D8093B000E32FFF27E555FF4F3B
:10068000E491FF27662329F4808190958923808354
:1006900008958081892B80830895EF92FF920F93B4
:1006A0001F937B018C0122E030E040E050E00E948B
:1006B0000E05205C3D4B404F5F4FCA01B901A801B8
:1006C00097010E940E052150304040405040BB270A
:1006D00057FDBA95A52F942F832F2F5F3F4F4F4F74
:1006E0005F4F8093C50021502093C400E1ECF0E0FF
:1006F0008081806180838081886080838081806840
:1007000080831F910F91FF90EF900895982F809113
:10071000C00085FFFCCF9093C600089580912B0107
:1007200090912C012091290130912A01821B930B79
:1007300080589F4F60E870E00E94D904089540916E
:10074000290150912A0180912B0190912C0184174D
:10075000950719F48FEF9FEF0895FA01EF5CFE4FB4
:100760002081CA01019660E870E00E94D90490934C
:100770002A0180932901822F9927089580912901C8
:1007800090912A0190932C0180932B0108951F9240
:100790000F920FB60F9211242F933F934F935F93B5
:1007A0006F937F938F939F93AF93BF93EF93FF9339
:1007B0004091C600E0912B01F0912C01CF010196F0
:1007C00060E870E00E94D9049C0180912901909119
:1007D0002A012817390739F0EF5CFE4F4083309328
:1007E0002C0120932B01FF91EF91BF91AF919F912D
:1007F0008F917F916F915F914F913F912F910F90CA
:100800000FBE0F901F90189508950E9486030895BB
:100810008AE00E9405040895CF93DF93EC0103C0A2
:1008200021960E94050488818823D1F7DF91CF911A
:1008300008952F923F924F925F926F927F928F9284
:100840009F92AF92BF92CF92DF92EF92FF920F935F
:100850001F93CF93DF93CDB7DEB7A0970FB6F89471
:10086000DEBF0FBECDBF6B017C0119012A016115EE
:1008700071058105910521F480E30E9405044BC0B8
:100880006624772443015E010894A11CB11C8501F4
:10089000060D171DC701B601A20191010E94EC04CB
:1008A000F80160830894611C711C811C911CC701B4
:1008B000B601A20191010E94EC0469017A0121159F
:1008C00031054105510519F773010894E108F10854
:1008D000EA0CFB1CAA24BB24650111C0F70180812E
:1008E0008A3010F4805D01C0895C0E940504089480
:1008F000A108B108C108D1080894E108F1088827C7
:100900009927DC0186199709A809B909A816B9061B
:10091000CA06DB0619F7A0960FB6F894DEBF0FBE25
:10092000CDBFDF91CF911F910F91FF90EF90DF909E
:10093000CF90BF90AF909F908F907F906F905F907F
:100940004F903F902F900895EF92FF920F931F9337
:100950007B018C0197FF0BC08DE20E94050410956E
:100960000095F094E094E11CF11C011D111D2AE09A
:1009700030E040E050E0C801B7010E9419041F9127
:100980000F91FF90EF90089520E130E040E050E0BB
:100990000E941904089528E030E040E050E00E94F1
:1009A0001904089522E030E040E050E00E9419046C
:1009B000089597FB092E07260AD077FD04D049D069
:1009C00006D000201AF4709561957F4F0895F6F7D0
:1009D000909581959F4F0895A1E21A2EAA1BBB1BEB
:1009E000FD010DC0AA1FBB1FEE1FFF1FA217B307FB
:1009F000E407F50720F0A21BB30BE40BF50B661F11
:100A0000771F881F991F1A9469F7609570958095D4
:100A100090959B01AC01BD01CF01089597FB092E74
:100A200005260ED057FD04D0D7DF0AD0001C38F4BD
:100A300050954095309521953F4F4F4F5F4F08950A
:100A4000F6F790958095709561957F4F8F4F9F4FEA
:100A50000895AA1BBB1B51E107C0AA1FBB1FA61705
:100A6000B70710F0A61BB70B881F991F5A95A9F757
:100A700080959095BC01CD010895EE0FFF1F059064
:060A8000F491E02D099441
:100A8600FFFF7B07A406EF059805FB047004F60339
:100A9600BC03636465666761624307000D007265A7
:040AA600616479000E
:00000001FF
