:100000000C945B000C9483000C9483000C9483008C
:100010000C9483000C9483000C9483000C94830054
:100020000C9483000C9483000C9483000C94830044
:100030000C9483000C9483000C9483000C94830034
:100040000C947D010C9483000C9431050C94830076
:100050000C9483000C9483000C9483000C94830014
:100060000C9483000C948300000024272A000025B0
:10007000282B000023262904040404040404040299
:100080000202020202030303030303010204081035
:100090002040800102040810200102040810200002
:1000A0000000070002010000030406000000000039
:1000B000000000009E0411241FBECFEFD4E0DEBF7D
:1000C000CDBF11E0A0E0B1E0E4EBFBE002C00590A1
:1000D0000D92AA36B107D9F711E0AAE6B1E001C046
:1000E0001D92AD3FB107E1F710E0C6EBD0E004C0D0
:1000F0002297FE010E94D405C43BD107C9F70E9494
:1001000076010C94D8050C94000080915F010E9448
:1001100052040197A1F561E0809161010E940704FA
:1001200080915E01882341F110925E0160E071E0F0
:1001300087E791E00E94A90264E071E087E791E01F
:100140000E946A020E94DA0128EE33E040E050E0AB
:100150000E948105BA01A90187E791E00E945C0332
:1001600068E171E087E791E00E94A90262E370E034
:1001700080E090E00E94E80181E080936E01809130
:100180005F010E945204892B09F064C060E08091F5
:1001900061010E94070480916E01882361F00E9432
:1001A000DA0160936A0170936B0180936C01909304
:1001B0006D0110926E0180915E01882309F04AC0A2
:1001C0000E94DA0120916A0130916B0140916C012B
:1001D00050916D01621B730B840B950B20915A019A
:1001E00030915B0140915C0150915D01261737070A
:1001F0004807590778F581E080935E016DE171E071
:1002000087E791E00E946A020E94DA0120915A0178
:1002100030915B0140915C0150915D01621B730B59
:10022000840B950B28EE33E040E050E00E948105FE
:10023000BA01A90187E791E00E945C0368E171E0DF
:1002400087E791E00E94A90262E370E080E090E01D
:100250000E94E8010895CF93DF9340E855E260E003
:1002600070E087E791E00E94B20460E080915F0156
:100270000E94E90361E0809161010E94E90360E06E
:1002800080915F010E9407046EE271E087E791E0D0
:100290000E946A02C0E0D0E00DC062E471E087E72E
:1002A00091E00E946A0268EE73E080E090E00E94B4
:1002B000E80121968091580190915901C817D907FA
:1002C00064F364E471E087E791E00E94A9026AE4C4
:1002D00071E087E791E00E94A90262E370E080E0AC
:1002E00090E00E94E801DF91CF9108950E942002E2
:1002F0000E942B010E948500FDCF1F920F920FB626
:100300000F9211242F938F939F93AF93BF9380915C
:100310006F0190917001A0917101B09172018050B4
:10032000904CAF4FBF4F80936F0190937001A0939B
:100330007101B093720127C080916F01909170019B
:10034000A0917101B091720180589E43A040B040CD
:1003500080936F0190937001A0937101B09372012B
:100360008091730190917401A0917501B091760113
:100370000196A11DB11D8093730190937401A09308
:100380007501B093760180916F0190917001A091F9
:100390007101B091720181589E43A040B04060F657
:1003A000BF91AF919F918F912F910F900FBE0F90A2
:1003B0001F9018958FB7F8942091730130917401B4
:1003C00040917501509176018FBFB901CA0108951E
:1003D000EF92FF920F931F937B018C018FB7F894DC
:1003E0004091730150917401609175017091760193
:1003F0008FBF2FB7F8948091730190917401A091F1
:100400007501B09176012FBF841B950BA60BB70B1E
:100410008E159F05A007B10760F31F910F91FF9004
:10042000EF900895019759F0FC01EE0FFF1FEE0FBA
:10043000FF1F32978FB7F8943197F1F78FBF089568
:10044000789484B5826084BD84B5816084BD85B5AF
:10045000826085BD85B5816085BDEEE6F0E0808176
:1004600081608083E1E8F0E0808182608083808128
:1004700081608083E0E8F0E0808181608083E1EB4F
:10048000F0E0808184608083E0EBF0E08081816037
:100490008083EAE7F0E080818460808380818260ED
:1004A00080838081816080838081806880831092D6
:1004B000C1000895DC01ED91FC910190F081E02DE7
:1004C00009950895DC01ED91FC910190F081E02DFA
:1004D000099508950F931F93CF93DF938C01EB0140
:1004E00009C02196D801ED91FC910190F081E02D99
:1004F000C801099568816623A1F7DF91CF911F910B
:100500000F9108950F931F938C01DC01ED91FC91E5
:100510000190F081E02D6DE00995D801ED91FC91FD
:100520000190F081E02D6AE0C80109951F910F91BB
:1005300008950F931F938C01DC01ED91FC910190C4
:10054000F081E02D0995C8010E9482021F910F9150
:1005500008950F931F938C010E946A02C8010E94A4
:1005600082021F910F9108950F931F938C01DC015C
:10057000ED91FC910190F081E02D0995C8010E9458
:1005800082021F910F9108952F923F924F925F9296
:100590006F927F928F929F92AF92BF92CF92DF9293
:1005A000EF92FF920F931F93DF93CF93CDB7DEB7F8
:1005B000A0970FB6F894DEBF0FBECDBF1C016A0135
:1005C0007B01411551056105710549F4DC01ED918F
:1005D000FC910190F081E02D60E3099554C08824DE
:1005E00099245401422E55246624772401E010E01A
:1005F0000C0F1D1F080D191DC701B601A3019201A3
:100600000E948105F80160830894811C911CA11C43
:10061000B11CC701B601A30192010E948105C90165
:10062000DA016C017D01C114D104E104F104F1F699
:1006300081E0E82EF12CEC0EFD1EE80CF91C3E01C9
:100640000894611C711CD501C4010197A109B1096D
:100650006C01C818D90814C0F601EE0DFF1D6081A9
:100660006A3010F4605D01C0695CD101ED91FC91CC
:100670000190F081E02DC10109950894E108F1088D
:100680006E147F0449F7A0960FB6F894DEBF0FBE34
:10069000CDBFCF91DF911F910F91FF90EF90DF9031
:1006A000CF90BF90AF909F908F907F906F905F9012
:1006B0004F903F902F9008952AE00E94C402089521
:1006C0000F931F938C010E945C03C8010E94820259
:1006D0001F910F910895AB0160E070E00E945C03F0
:1006E00008950F931F938C01AB0160E070E00E94AE
:1006F0005C03C8010E9482021F910F910895EF923E
:10070000FF920F931F93CF93DF93EC017A018B013C
:1007100077FF0FC0E881F9810190F081E02D6DE253
:10072000099510950095F094E094E11CF11C011DD1
:10073000111D2AE0B801A701CE010E94C402DF9179
:10074000CF911F910F91FF90EF9008950F931F93FA
:100750008C010E947F03C8010E9482021F910F91A9
:100760000895AB01662757FD6095762F0E947F03A1
:1007700008950F931F938C01AB01662757FD609579
:10078000762F0E947F03C8010E9482021F910F9161
:100790000895DC012115310541F4ED91FC910190A2
:1007A000F081E02D642F099508952A30310519F460
:1007B0000E947F0308950E94C40208950F931F931F
:1007C0008C010E94C903C8010E9482021F910F91EF
:1007D0000895282F30E0C90185579F4FFC0194915F
:1007E00029583F4FF9018491882381F0E82FF0E0E8
:1007F000E859FF4FE491F0E0662329F48081909559
:100800008923808308958081892B80830895482FD0
:1008100050E0CA0181569F4FFC012491CA018557BF
:100820009F4FFC01949149585F4FFA013491332353
:10083000C1F1222331F1233021F4809180008F77A0
:1008400005C0243031F4809180008F7D809380003A
:1008500018C0213019F484B58F7704C0223021F4F8
:1008600084B58F7D84BD0DC0263021F48091B00009
:100870008F7705C0273029F48091B0008F7D809359
:10088000B000E32FF0E0E359FF4FE491F0E066237E
:1008900029F4808190958923808308958081892B14
:1008A00080830895482F50E0CA0181569F4FFC0174
:1008B0002491CA0185579F4FFC01949149585F4F7D
:1008C000FA013491332319F420E030E035C02223BB
:1008D00031F1233021F4809180008F7705C02430DE
:1008E00031F4809180008F7D8093800018C021308A
:1008F00019F484B58F7704C0223021F484B58F7D3C
:1009000084BD0DC0263021F48091B0008F7705C0E2
:10091000273029F48091B0008F7D8093B000E32FC1
:10092000F0E0EE58FF4FE491F0E0808120E030E00D
:10093000892311F021E030E0C901089587E691E0B4
:1009400090937801809377010895862F0E94F00498
:1009500008950E94280508950E94090508950E949F
:10096000F8040895CB01BA010E94B7040895EF92EC
:10097000FF920F931F937B018C0122E030E040E057
:1009800050E00E94A305205C3D4B404F5F4FCA01E1
:10099000B901A80197010E94A305C901DA010197D5
:1009A000A109B109292F3A2F4B2F552747FD5A95F9
:1009B0000196A11DB11D2093C50081508093C400F4
:1009C000E1ECF0E0808180618083808188608083B9
:1009D0008081806880831F910F91FF90EF90089530
:1009E000982F8091C00085FFFCCF9093C60008959A
:1009F0008091790190917A0180589F4F20917B01DD
:100A000030917C01821B930B60E870E00E946E05C0
:100A1000089540917B0150917C01809179019091E2
:100A20007A018417950719F42FEF3FEF0FC0FA01F1
:100A3000E358FE4F2081CA01019660E870E00E94F1
:100A40006E0590937C0180937B0130E0C90108958D
:100A500080917B0190917C0190937A018093790140
:100A600008951F920F920FB60F9211242F933F9368
:100A70004F935F936F937F938F939F93AF93BF93A6
:100A8000EF93FF934091C600E0917901F0917A01D4
:100A9000CF01019660E870E00E946E059C01809194
:100AA0007B0190917C012817390739F0E358FE4FFC
:100AB000408330937A0120937901FF91EF91BF91A8
:100AC000AF919F918F917F916F915F914F913F91E6
:100AD0002F910F900FBE0F901F90189597FB092E26
:100AE00007260AD077FD04D049D006D000201AF49A
:100AF000709561957F4F0895F6F7909581959F4F7A
:100B00000895A1E21A2EAA1BBB1BFD010DC0AA1F4E
:100B1000BB1FEE1FFF1FA217B307E407F50720F066
:100B2000A21BB30BE40BF50B661F771F881F991FE1
:100B30001A9469F760957095809590959B01AC012A
:100B4000BD01CF01089597FB092E05260ED057FD54
:100B500004D0D7DF0AD0001C38F45095409530956A
:100B600021953F4F4F4F5F4F0895F6F79095809531
:100B7000709561957F4F8F4F9F4F0895AA1BBB1BA8
:100B800051E107C0AA1FBB1FA617B70710F0A61B8D
:100B9000B70B881F991F5A95A9F780959095BC01AE
:100BA000CD010895EE0FFF1F0590F491E02D0994FB
:040BB000F894FFCFE7
:100BB4002D2D2D006D6F74696F6E206465746563EF
:100BC400746564206174200020736563006D6F7424
:100BD400696F6E20656E64656420617420006361D2
:100BE4006C6962726174696E672073656E736F728B
:100BF40020002E0020646F6E650053454E534F5203
:100C040020414354495645001E0088130000010347
:0A0C1400000D0000000000A5040020
:00000001FF
