:100000000C945C000C9484000C9484000C94840088
:100010000C9484000C9484000C9484000C94840050
:100020000C9484000C9484000C9484000C94840040
:100030000C9484000C9484000C9484000C94840030
:100040000C945C010C9484000C947A050C9484004C
:100050000C9484000C9484000C9484000C94840010
:100060000C9484000C948400000024272A000025AE
:10007000282B000023262904040404040404040299
:100080000202020202030303030303010204081035
:100090002040800102040810200102040810200002
:1000A0000000070002010000030406000000000039
:1000B000000000008600E70411241FBECFEFD4E04B
:1000C000DEBFCDBF11E0A0E0B1E0EEE8FFE002C08E
:1000D00005900D92AE30B107D9F711E0AEE0B1E076
:1000E00001C01D92A63AB107E1F710E0C8EBD0E0DD
:1000F00004C02297FE010E94C107C43BD107C9F783
:100100000E9455010C94C5070C94000080910201D7
:10011000909103019093170180931601089561E077
:10012000809100010E94320460E0809100010E94F1
:10013000500482E090E00E94F10161E080910001B2
:100140000E94500485E090E00E94F10160E08091FF
:1001500000010E94500460E0809100010E9432047E
:1001600061E0809100010E94500420E432E44FE0FD
:1001700050E061E0809100010E94390260930E011D
:1001800070930F0180931001909311010E944B0610
:1001900020E53DE848E652E40E94B70524E13EEA46
:1001A00047EC5EE30E94D9060E941F069B01AC014A
:1001B00060931201709313018093140190931501C1
:1001C000CA010895CF93DF930E948F00EB0180E274
:1001D00091E00E940204C932D1051CF084E690E04F
:1001E00004C065975CF080E991E0909307018093EB
:1001F000060180910201909103010AC084E893E016
:10020000909307018093060180910401909105016C
:10021000909317018093160161E0809116010E946E
:1002200050046091060170910701882777FD809541
:10023000982F0E94C70160E0809116010E9450042F
:1002400060E0809104010E94500460E0809102010E
:100250000E94500468EE73E080E090E00E94C701C5
:10026000DF91CF91089540E855E260E070E080E2D0
:1002700091E00E94FB0461E0809100010E94320441
:1002800061E0809116010E94320461E080910401D6
:100290000E94320460E0809102010E94500460E0FC
:1002A000809104010E94500408950E94FF010E9461
:1002B00033010E94E200FDCF1F920F920FB60F9202
:1002C00011242F938F939F93AF93BF938091180125
:1002D00090911901A0911A01B0911B018050904C8E
:1002E000AF4FBF4F8093180190931901A0931A014B
:1002F000B0931B0127C08091180190911901A09122
:100300001A01B0911B0180589E43A040B0408093D9
:10031000180190931901A0931A01B0931B018091C9
:100320001C0190911D01A0911E01B0911F01019629
:10033000A11DB11D80931C0190931D01A0931E016E
:10034000B0931F018091180190911901A0911A0199
:10035000B0911B0181589E43A040B04060F6BF9110
:10036000AF919F918F912F910F900FBE0F901F9083
:1003700018958FB7F89420911C0130911D01409180
:100380001E0150911F018FBFB901CA010895EF925C
:10039000FF920F931F937B018C018FB7F8944091CC
:1003A0001C0150911D0160911E0170911F018FBFB2
:1003B0002FB7F89480911C0190911D01A0911E010E
:1003C000B0911F012FBF841B950BA60BB70B8E1589
:1003D0009F05A007B10760F31F910F91FF90EF9069
:1003E0000895019759F0FC01EE0FFF1FEE0FFF1F5C
:1003F00032978FB7F8943197F1F78FBF08957894BB
:1004000084B5826084BD84B5816084BD85B5826019
:1004100085BD85B5816085BDEEE6F0E080818160B7
:100420008083E1E8F0E08081826080838081816068
:100430008083E0E8F0E0808181608083E1EBF0E0A0
:10044000808184608083E0EBF0E080818160808344
:10045000EAE7F0E08081846080838081826080832D
:100460008081816080838081806880831092C10058
:100470000895EF92FF920F931F93A82FB0E0CD0144
:1004800085579F4FFC017491A958BF4FFD0184917E
:10049000662311F490E001C0972F6FEFE62E6FEF07
:1004A000F62E6FEF062F6FE0162FE222F3220423C1
:1004B000152320E030E040E050E0E82FF0E0EE5877
:1004C000FF4F8491A82FB0E00EC02E153F054007C6
:1004D000510729F420E030E040E050E02DC02F5FCC
:1004E0003F4F4F4F5F4F8C918723891771F720E063
:1004F00030E040E050E08491E82FF0E004C02F5F4E
:100500003F4F4F4F5F4F808187238917C1F3CA0147
:10051000B9012AE030E040E050E00E943C079B0136
:10052000AC01205F3F4F4F4F5F4F84E0569547959A
:10053000379527958A95D1F7B901CA011F910F9177
:10054000FF90EF900895DC01ED91FC910190F08116
:10055000E02D09950895DC01ED91FC910190F08169
:10056000E02D099508950F931F93CF93DF938C018E
:10057000EB0109C02196D801ED91FC910190F08129
:10058000E02DC801099568816623A1F7DF91CF911D
:100590001F910F9108950F931F938C01DC01ED9132
:1005A000FC910190F081E02D6DE00995D801ED916D
:1005B000FC910190F081E02D6AE0C80109951F913E
:1005C0000F9108950F931F938C01DC01ED91FC9125
:1005D0000190F081E02D0995C8010E94CB021F9186
:1005E0000F9108950F931F938C010E94B302C801CD
:1005F0000E94CB021F910F9108950F931F938C01BE
:10060000DC01ED91FC910190F081E02D0995C8018C
:100610000E94CB021F910F9108952F923F924F920B
:100620005F926F927F928F929F92AF92BF92CF9282
:10063000DF92EF92FF920F931F93DF93CF93CDB78B
:10064000DEB7A0970FB6F894DEBF0FBECDBF1C017A
:100650006A017B01411551056105710549F4DC0111
:10066000ED91FC910190F081E02D60E3099554C07B
:10067000882499245401422E55246624772401E0CD
:1006800010E00C0F1D1F080D191DC701B601A301B5
:1006900092010E946E07F80160830894811C911CEE
:1006A000A11CB11CC701B601A30192010E946E07F3
:1006B000C901DA016C017D01C114D104E104F10426
:1006C000F1F681E0E82EF12CEC0EFD1EE80CF91C91
:1006D0003E010894611C711CD501C4010197A10958
:1006E000B1096C01C818D90814C0F601EE0DFF1D40
:1006F00060816A3010F4605D01C0695CD101ED91E8
:10070000FC910190F081E02DC10109950894E10868
:10071000F1086E147F0449F7A0960FB6F894DEBF77
:100720000FBECDBFCF91DF911F910F91FF90EF9042
:10073000DF90CF90BF90AF909F908F907F906F9001
:100740005F904F903F902F9008952AE00E940D03F4
:1007500008950F931F938C010E94A503C8010E9466
:10076000CB021F910F910895AB0160E070E00E94F1
:10077000A50308950F931F938C01AB0160E070E017
:100780000E94A503C8010E94CB021F910F910895FA
:10079000EF92FF920F931F93CF93DF93EC017A01B7
:1007A0008B0177FF0FC0E881F9810190F081E02D86
:1007B0006DE2099510950095F094E094E11CF11C10
:1007C000011D111D2AE0B801A701CE010E940D03F1
:1007D000DF91CF911F910F91FF90EF9008950F93AC
:1007E0001F938C010E94C803C8010E94CB021F9175
:1007F0000F910895AB01662757FD6095762F0E94F3
:10080000C80308950F931F938C01AB01662757FD12
:100810006095762F0E94C803C8010E94CB021F91E9
:100820000F910895DC012115310541F4ED91FC9102
:100830000190F081E02D642F099508952A3031054B
:1008400019F40E94C80308950E940D0308950F93A0
:100850001F938C010E941204C8010E94CB021F91B9
:100860000F910895282F30E0C90185579F4FFC0153
:10087000949129583F4FF9018491882381F0E82F02
:10088000F0E0E859FF4FE491F0E0662329F480811D
:1008900090958923808308958081892B8083089592
:1008A000482F50E0CA0181569F4FFC012491CA0194
:1008B00085579F4FFC01949149585F4FFA0134913D
:1008C0003323C1F1222331F1233021F480918000C0
:1008D0008F7705C0243031F4809180008F7D809324
:1008E000800018C0213019F484B58F7704C02230FD
:1008F00021F484B58F7D84BD0DC0263021F4809114
:10090000B0008F7705C0273029F48091B0008F7D2B
:100910008093B000E32FF0E0E359FF4FE491F0E063
:10092000662329F4808190958923808308958081AE
:10093000892B80830895482F50E0CA0181569F4F2C
:10094000FC012491CA0185579F4FFC01949149589D
:100950005F4FFA013491332319F420E030E035C0C1
:10096000222331F1233021F4809180008F7705C05C
:10097000243031F4809180008F7D8093800018C0F6
:10098000213019F484B58F7704C0223021F484B566
:100990008F7D84BD0DC0263021F48091B0008F770B
:1009A00005C0273029F48091B0008F7D8093B0007E
:1009B000E32FF0E0EE58FF4FE491F0E0808120E07B
:1009C00030E0892311F021E030E0C90108958CE086
:1009D00091E090932101809320010895862F0E9439
:1009E000390508950E94710508950E9452050895E1
:1009F0000E9441050895CB01BA010E9400050895A7
:100A0000EF92FF920F931F937B018C0122E030E065
:100A100040E050E00E949007205C3D4B404F5F4F0C
:100A2000CA01B901A80197010E949007C901DA0122
:100A30000197A109B109292F3A2F4B2F552747FDBF
:100A40005A950196A11DB11D2093C5008150809338
:100A5000C400E1ECF0E08081806180838081886067
:100A600080838081806880831F910F91FF90EF9039
:100A70000895982F8091C00085FFFCCF9093C60009
:100A80000895809122019091230180589F4F2091D9
:100A9000240130912501821B930B60E870E00E94D5
:100AA0005B07089540912401509125018091220116
:100AB000909123018417950719F42FEF3FEF0FC092
:100AC000FA01EA5DFE4F2081CA01019660E870E0FC
:100AD0000E945B07909325018093240130E0C901B7
:100AE0000895809124019091250190932301809392
:100AF000220108951F920F920FB60F9211242F9387
:100B00003F934F935F936F937F938F939F93AF9395
:100B1000BF93EF93FF934091C600E0912201F091C3
:100B20002301CF01019660E870E00E945B079C0101
:100B300080912401909125012817390739F0EA5D49
:100B4000FE4F40833093230120932201FF91EF91C8
:100B5000BF91AF919F918F917F916F915F914F91D5
:100B60003F912F910F900FBE0F901F9018950CD0B2
:100B7000E6C0DED040F0D5D030F021F45F3F19F070
:100B8000C7C0511110C1CAC0EBD098F39923C9F363
:100B90005523B1F3951B550BBB27AA276217730783
:100BA000840738F09F5F5F4F220F331F441FAA1F37
:100BB000A9F333D00E2E3AF0E0E830D091505040F7
:100BC000E695001CCAF729D0FE2F27D0660F771FA5
:100BD000881FBB1F261737074807AB07B0E809F087
:100BE000BB0B802DBF01FF2793585F4F2AF09E3F1C
:100BF000510568F08DC0D7C05F3FECF3983EDCF341
:100C0000869577956795B795F7959F5FC9F7880F94
:100C1000911D9695879597F90895E1E0660F771FE6
:100C2000881FBB1F621773078407BA0720F0621B77
:100C3000730B840BBA0BEE1F88F7E095089598D0DC
:100C400088F09F5790F0B92F9927B751A0F0D1F0B5
:100C5000660F771F881F991F1AF0BA95C9F712C03F
:100C6000B13081F09FD0B1E008959CC0672F782FFC
:100C70008827B85F39F0B93FCCF3869577956795AB
:100C8000B395D9F73EF490958095709561957F4F17
:100C90008F4F9F4F0895E89409C097FB3EF49095BD
:100CA0008095709561957F4F8F4F9F4F9923A9F045
:100CB000F92F96E9BB279395F695879577956795D4
:100CC000B795F111F8CFFAF4BB0F11F460FF1BC018
:100CD0006F5F7F4F8F4F9F4F16C0882311F096E9AB
:100CE00011C0772321F09EE8872F762F05C0662359
:100CF00071F096E8862F70E060E02AF09A95660F12
:100D0000771F881FDAF7880F9695879597F90895CA
:100D100097F99F6780E870E060E008959FEF80ECAE
:100D2000089500240A941616170618060906089551
:100D300000240A9412161306140605060895092EB7
:100D40000394000C11F4882352F0BB0F40F4BF2B26
:100D500011F460FF04C06F5F7F4F8F4F9F4F089566
:100D600057FD9058440F551F59F05F3F71F047955C
:100D7000880F97FB991F61F09F3F79F08795089541
:100D8000121613061406551FF2CF4695F1DF08C060
:100D9000161617061806991FF1CF8695710561057D
:100DA00008940895E894BB2766277727CB0197F925
:100DB00008950BD0C4CFB5DF28F0BADF18F0952323
:100DC00009F0A6CFABCF1124EECFCADFA0F3959FD9
:100DD000D1F3950F50E0551F629FF001729FBB2722
:100DE000F00DB11D639FAA27F00DB11DAA1F649FCE
:100DF0006627B00DA11D661F829F2227B00DA11D81
:100E0000621F739FB00DA11D621F839FA00D611D06
:100E1000221F749F3327A00D611D231F849F600D27
:100E2000211D822F762F6A2F11249F5750408AF060
:100E3000E1F088234AF0EE0FFF1FBB1F661F771FEC
:100E4000881F91505040A9F79E3F510570F060CF28
:100E5000AACF5F3FECF3983EDCF3869577956795D4
:100E6000B795F795E7959F5FC1F7FE2B880F911D0A
:100E70009695879597F90895629FD001739FF00129
:100E8000829FE00DF11D649FE00DF11D929FF00D1A
:100E9000839FF00D749FF00D659FF00D9927729F51
:100EA000B00DE11DF91F639FB00DE11DF91FBD01DC
:100EB000CF011124089597FB092E07260AD077FD4C
:100EC00004D049D006D000201AF4709561957F4F68
:100ED0000895F6F7909581959F4F0895A1E21A2EF7
:100EE000AA1BBB1BFD010DC0AA1FBB1FEE1FFF1FCE
:100EF000A217B307E407F50720F0A21BB30BE40B1E
:100F0000F50B661F771F881F991F1A9469F7609564
:100F10007095809590959B01AC01BD01CF0108951E
:100F200097FB092E05260ED057FD04D0D7DF0AD037
:100F3000001C38F450954095309521953F4F4F4F08
:100F40005F4F0895F6F790958095709561957F4F66
:100F50008F4F9F4F0895AA1BBB1B51E107C0AA1FCB
:100F6000BB1FA617B70710F0A61BB70B881F991F4A
:100F70005A95A9F780959095BC01CD010895EE0F83
:0E0F8000FF1F0590F491E02D0994F894FFCF27
:0E0F8E00070006000500020000000000EE044F
:00000001FF
