:100000000C945C000C9407050C9434050C9484004B
:100010000C9484000C9484000C9484000C94840050
:100020000C9484000C9484000C9484000C94840040
:100030000C9484000C9484000C9484000C94840030
:100040000C9461050C9484000C9439070C94840082
:100050000C9484000C9484000C9484000C94840010
:100060000C9484000C948400000024272A000025AE
:10007000282B000023262904040404040404040299
:100080000202020202030303030303010204081035
:100090002040800102040810200102040810200002
:1000A0000000070002010000030406000000000039
:1000B00000000000BF02EC0311241FBECFEFD4E00C
:1000C000DEBFCDBF11E0A0E0B1E0E2EDF2E102C0A1
:1000D00005900D92AA35B107D9F712E0AAE5B1E073
:1000E00001C01D92A330B107E1F710E0C8EBD0E0EA
:1000F00004C02297FE010E946309C43BD107C9F7DF
:100100000E94E5030C9467090C940000DC011A9628
:100110006C931A97262F30E0C90189589F4FFC0134
:1001200084911B968C931B9725573F4FF90194910F
:100130001C969C931C9790E0FC01E359FF4FE491BF
:100140001D96EC931D971E961C921E97FC01EE586F
:10015000FF4FE4911F96EC931F9750961C92509777
:1001600088599F4FFC01849151968C9351975296D8
:100170001C9252978FEF18968C93189719961C9291
:10018000199787E0FD01E80FF11D1082882311F017
:100190008150F8CF0895DC018FEF18968C93189753
:1001A00019961C92199787E0FD01E80FF11D108246
:1001B000882311F08150F8CF0895FC0140E030E031
:1001C0005CE80EC0208190E0822F8327369580FD69
:1001D00035279F5F983011F02695F6CF4F5F319607
:1001E000461780F3832F0895FF920F931F938C017E
:1001F000DC015196ED91FC91529780811C969C9167
:100200001C97892B80831D96ED91FC911E97908100
:100210001C968C9180958923808381E090E00E94D8
:10022000FB05D8015196ED91FC91529790811C9657
:100230008C9180958923808385E090E00E94FB0566
:10024000D8011F96ED91FC9150972081FF2430E05A
:100250001C968C9190E028233923232B11F0FF2446
:10026000F39482E390E00E94FB058F2D1F910F9184
:10027000FF900895EF92FF920F931F93CF93DF9318
:100280007C0101E010E0C0E0D0E0C7010E94F40072
:100290008111102B000F2196C830D105B1F7812FA5
:1002A000DF91CF911F910F91FF90EF900895EF9202
:1002B000FF920F931F937C01062FDC015196ED9165
:1002C000FC91529780811C969C911C97892B80836E
:1002D0001D96ED91FC911E9790811C968C918095B6
:1002E00089238083017010E0F801EF5AFE4F80816E
:1002F00090E00E94FB05D7011D96ED91FC911E97A1
:1003000080811C969C91892B8083015B1E4FF80194
:10031000808190E00E94FB051F910F91FF90EF906C
:100320000895CF92DF92EF92FF920F931F93CF9396
:10033000DF938C01E42EFF24F394C0E0D0E0C62EBE
:10034000DD2460E08F2D90E08C219D21892B09F028
:1003500061E0C8010E945701FF0C2196C830D10509
:1003600081F7EE2051F4F801828560E00E94430697
:10037000F801828560E00E946106DF91CF911F91B4
:100380000F91FF90EF90DF90CF900895EF92FF9242
:100390000F931F93CF93DF938C017B0165E540E0C2
:1003A0000E949101C0E0D0E0F701EC0FFD1FC801F1
:1003B000608140E00E9491012196C830D105A1F7EB
:1003C000DF91CF911F910F91FF90EF9008951F93B0
:1003D000CF93DF93EC018A8560E00E9443061DE71E
:1003E000115010F410E028C082E090E00E94FB055C
:1003F0008A850E94AC06892B99F38A8560E00E9469
:1004000061068A8561E00E94430684EF91E00E94C4
:10041000FB058A8560E00E94430681E490E00E942B
:10042000FB058A850E94AC0610E0892B09F411E0D7
:100430008AEE91E00E94FB05812FDF91CF911F9101
:1004400008958F929F92AF92BF92DF92EF92FF92A8
:100450000F931F93CF93DF93EC015B018985882372
:1004600009F080C0CE010E94E701882309F47AC018
:10047000CE0160EF40E00E949101EE24E394DD2480
:10048000DA9400E010E081E0882E912CCE010E94E9
:10049000F400F82ECE010E94F400282F502F56951C
:1004A00056955695C80187709070B40102C0660FCA
:1004B000771F8A95E2F7462FFF2029F0222309F0C3
:1004C00051C09F2D21C0222339F58885992787FDAA
:1004D00090950817190711F4D8860EC00817190748
:1004E0006CF4262F30E0FE01E50FF11D808190E0D5
:1004F00028233923232B19F091E003C0088790E0CB
:10050000EE24D02E992341F0FE01E50FF11D8081EC
:10051000842B8083F92E07C0FE01E50FF11D409565
:10052000808148234083CE016F2D0E9457010F5FC9
:100530001F4F0034110509F0A9CFEE2011F081E022
:10054000898720E030E0F501E20FF31FDE01A20F02
:10055000B31F8C9180832F5F3F4F2830310599F76F
:1005600081E001C080E0DF91CF911F910F91FF905A
:10057000EF90DF90BF90AF909F908F9008958AE5A5
:1005800091E068E00E9486000895AF92BF92CF92FA
:10059000DF92EF92FF920F931F93DF93CF93CDB72C
:1005A000DEB764970FB6F894DEBF0FBECDBF8AE505
:1005B00091E08E010F5F1F4FB8010E942102882336
:1005C00029F48AE591E00E94CB00E5C08DE691E038
:1005D00060E071E00E94FC0368018E01075F1F4F1D
:1005E000F60141916F0150E060E070E08DE691E02E
:1005F00020E130E00E94F2048DE691E063E071E0DA
:100600000E94FC03C016D10659F78E010F5F1F4FE1
:10061000C80167E00E94DD009885891729F08DE602
:1006200091E065E071E007C08981883239F08DE69C
:1006300091E068E171E00E94FC03ADC08AE591E0C1
:100640000E94E7018AE591E0B8010E94C6018AE5AF
:1006500091E064E441E00E94910168EE73E080E083
:1006600090E00E94D1058AE591E00E94E701E82E22
:100670008AE591E0B8010E94C6018AE591E06EEB3F
:1006800040E00E9491018DE691E060E471E00E94FB
:10069000FC03FF2400E010E08DE691E0B801A70123
:1006A00020E130E00E94F2048DE691E063E071E029
:1006B0000E94FC038601C601BC2CA92E92E1C92E22
:1006C000D12CCC0EDD1E8AE591E00E943A01482F24
:1006D000F80181938F0150E060E070E08DE691E0D9
:1006E00020E130E00E94F2048DE691E063E471E0E5
:1006F0000E94FC030C151D0531F77A8560E0298501
:10070000620F711D84E0759567958A95E1F78827DA
:1007100077FD8095982F0E940E0826E636E646EE75
:100720005FE30E949A0820E030E040E052E40E943B
:1007300077077B018C018DE691E066E471E00E9411
:10074000FC03C801B7010E94DB079B01AC018DE6E9
:1007500091E0B9010E94EA048DE691E063E471E062
:100760000E94FC038DE691E069E471E00E94FC03C5
:100770008B2D9A2D68E00E94DD00482F50E060E04C
:1007800070E08DE691E020E130E00E94F2048DE619
:1007900091E00E94140464960FB6F894DEBF0FBE79
:1007A000CDBFCF91DF911F910F91FF90EF90DF9020
:1007B000CF90BF90AF9008958DE691E040E855E26C
:1007C00060E070E00E94F70308950E9409060E940D
:1007D000DC030E94C502FDCF87E591E090936E0196
:1007E00080936D010895862F0E9431070895CB01F3
:1007F000BA010E94F80608950F931F93CF93DF93D9
:100800008C01EB0109C02196D801ED91FC9101907A
:10081000F081E02DC801099568816623A1F7DF9179
:10082000CF911F910F9108950F931F938C01DC01BD
:10083000ED91FC910190F081E02D6DE00995D801DA
:10084000ED91FC910190F081E02DC8016AE00995DD
:100850001F910F9108952F923F924F925F926F9246
:100860007F928F929F92AF92BF92CF92DF92EF9240
:10087000FF920F931F93DF93CF93CDB7DEB7A0976F
:100880000FB6F894DEBF0FBECDBF1C016A017B011D
:10089000411551056105710549F4DC01ED91FC91AB
:1008A0000190F081E02D60E3099554C088249924DB
:1008B0005401422E55246624772401E010E00C0FE9
:1008C0001D1F080D191DC701B601A30192010E9449
:1008D0001009F80160830894811C911CA11CB11CB3
:1008E000C701B601A30192010E941009C901DA01F2
:1008F0006C017D01C114D104E104F104F1F681E041
:10090000E82EF12CEC0EFD1EE80CF91C3E010894BB
:10091000611C711CD501C4010197A109B1096C01C9
:10092000C818D90814C0F601EE0DFF1D60816A30A9
:1009300010F4605D01C0695CD101ED91FC91019002
:10094000F081E02DC10109950894E108F1086E14C9
:100950007F0449F7A0960FB6F894DEBF0FBECDBF57
:10096000CF91DF911F910F91FF90EF90DF90CF908B
:10097000BF90AF909F908F907F906F905F904F90BF
:100980003F902F900895EF92FF920F931F93CF9374
:10099000DF93EC017A018B0177FF0FC0E881F981C9
:1009A0000190F081E02D6DE2099510950095F0948D
:1009B000E094E11CF11C011D111DCE01B801A7013D
:1009C0002AE00E942B04DF91CF911F910F91FF909D
:1009D000EF900895AB01662757FD6095762F0E9432
:1009E000C3040895DC012115310541F4ED91FC911A
:1009F0000190F081E02D642F099508952A3031058A
:100A000019F40E94C30408950E942B0408951F92B4
:100A10000F920FB60F9211242F933F934F935F9332
:100A20006F937F938F939F93AF93BF93EF93FF93B6
:100A300080916F0190917001892B29F0E0916F01F5
:100A4000F09170010995FF91EF91BF91AF919F9146
:100A50008F917F916F915F914F913F912F910F9067
:100A60000FBE0F901F9018951F920F920FB60F9206
:100A700011242F933F934F935F936F937F938F93A3
:100A80009F93AF93BF93EF93FF93809171019091E8
:100A90007201892B29F0E0917101F09172010995A1
:100AA000FF91EF91BF91AF919F918F917F916F9146
:100AB0005F914F913F912F910F900FBE0F901F901C
:100AC00018951F920F920FB60F9211242F938F93A8
:100AD0009F93AF93BF938091730190917401A09104
:100AE0007501B09176010196A11DB11D809373012E
:100AF00090937401A0937501B09376018091770172
:100B000090917801A0917901B0917A018050904C38
:100B1000AF4FBF4F8093770190937801A0937901F5
:100B2000B0937A0127C08091770190917801A091CC
:100B30007901B0917A0180589E43A040B0408093E3
:100B4000770190937801A0937901B0937A01809115
:100B50007B0190917C01A0917D01B0917E01019675
:100B6000A11DB11D80937B0190937C01A0937D0119
:100B7000B0937E018091770190917801A0917901E5
:100B8000B0917A0181589E43A040B04060F6BF9179
:100B9000AF919F918F912F910F900FBE0F901F904B
:100BA0001895EF92FF920F931F937B018C018FB7E3
:100BB000F89440917B0150917C0160917D0170918E
:100BC0007E018FBF2FB7F89480917B0190917C01BB
:100BD000A0917D01B0917E012FBF841B950BA60BC8
:100BE000B70BE816F9060A071B0760F71F910F916C
:100BF000FF90EF900895019759F0FC01EE0FFF1F51
:100C0000EE0FFF1F32978FB7F8943197F1F78FBF30
:100C10000895789484B5826084BD84B5816084BD74
:100C200085B5826085BD85B5816085BDEEE6F0E065
:100C3000808181608083E1E8F0E080818260808350
:100C4000808181608083E0E8F0E080818160808342
:100C5000E1EBF0E0808184608083E0EBF0E0808174
:100C600081608083EAE7F0E0808184608083808116
:100C700082608083808181608083808180688083BE
:100C80001092C1000895282F30E0C90185579F4F69
:100C9000FC01949129583F4FF9018491882381F0F8
:100CA000E82FF0E0E859FF4FE491F0E0662329F4E3
:100CB000808190958923808308958081892B80830A
:100CC0000895482F50E0CA0181569F4FFC0124919E
:100CD000CA0185579F4FFC01949149585F4FFA0113
:100CE00034913323C1F1222331F1233021F4809157
:100CF00080008F7705C0243031F4809180008F7D93
:100D00008093800018C0213019F484B58F7704C017
:100D1000223021F484B58F7D84BD0DC0263021F4AE
:100D20008091B0008F7705C0273029F48091B00002
:100D30008F7D8093B000E32FF0E0E359FF4FE49103
:100D4000F0E0662329F480819095892380830895BB
:100D50008081892B80830895482F50E0CA018156F5
:100D60009F4FFC012491CA0185579F4FFC0194912C
:100D700049585F4FFA013491332319F420E030E0F1
:100D800035C0222331F1233021F4809180008F7708
:100D900005C0243031F4809180008F7D80938000E5
:100DA00018C0213019F484B58F7704C0223021F4A3
:100DB00084B58F7D84BD0DC0263021F48091B000B4
:100DC0008F7705C0273029F48091B0008F7D809304
:100DD000B000E32FF0E0EE58FF4FE491F0E08081A7
:100DE00020E030E0892311F021E030E0C9010895CE
:100DF000EF92FF920F931F937B018C0122E030E072
:100E000040E050E00E943209205C3D4B404F5F4F74
:100E1000CA01B901A80197010E943209C901DA018A
:100E20000197A109B109292F3A2F4B2F552747FDCB
:100E30005A950196A11DB11D2093C5008150809344
:100E4000C400E1ECF0E08081806180838081886073
:100E500080838081806880831F910F91FF90EF9045
:100E60000895982F8091C00085FFFCCF9093C60015
:100E700008951F920F920FB60F9211242F933F9354
:100E80004F935F936F937F938F939F93AF93BF9392
:100E9000EF93FF934091C600E0917F01F0918001B4
:100EA000CF01019660E870E00E94FD089C018091EE
:100EB0008101909182012817390739F0ED57FE4FD3
:100EC00040833093800120937F01FF91EF91BF9188
:100ED000AF919F918F917F916F915F914F913F91D2
:100EE0002F910F900FBE0F901F9018955058BB2751
:100EF000AA270ED0E5C0D6D030F0DBD020F031F4F8
:100F00009F3F11F41EF4CBC00EF4E095E7FBC1C087
:100F1000E92FE7D080F3BA176207730784079507B4
:100F200018F071F49EF5FFC00EF4E0950B2EBA2F69
:100F3000A02D0B01B90190010C01CA01A0011124DF
:100F4000FF27591B99F0593F50F4503E68F11A168B
:100F5000F040A22F232F342F4427585FF3CF46951C
:100F600037952795A795F0405395C9F77EF41F163E
:100F7000BA0B620B730B840BBAF09150A1F0FF0F08
:100F8000BB1F661F771F881FC2F70EC0BA0F621FF4
:100F9000731F841F48F4879577956795B795F795E4
:100FA0009E3F08F0B3CF9395880F08F09927EE0F76
:100FB00097958795089504D06894B111B5C00895A8
:100FC00098D088F09F5790F0B92F9927B751A0F08B
:100FD000D1F0660F771F881F991F1AF0BA95C9F7CD
:100FE00012C0B13081F09FD0B1E008959CC0672F4E
:100FF000782F8827B85F39F0B93FCCF3869577957D
:101000006795B395D9F73EF4909580957095619565
:101010007F4F8F4F9F4F0895E89409C097FB3EF490
:1010200090958095709561957F4F8F4F9F4F992335
:10103000A9F0F92F96E9BB279395F69587957795B3
:101040006795B795F111F8CFFAF4BB0F11F460FF73
:101050001BC06F5F7F4F8F4F9F4F16C0882311F0CB
:1010600096E911C0772321F09EE8872F762F05C0DF
:10107000662371F096E8862F70E060E02AF09A957A
:10108000660F771F881FDAF7880F9695879597F96F
:10109000089597F99F6780E870E060E008959FEFFA
:1010A00080EC089500240A941616170618060906FF
:1010B000089500240A9412161306140605060895CE
:1010C000092E0394000C11F4882352F0BB0F40F456
:1010D000BF2B11F460FF04C06F5F7F4F8F4F9F4F96
:1010E000089557FD9058440F551F59F05F3F71F018
:1010F0004795880F97FB991F61F09F3F79F087957F
:101100000895121613061406551FF2CF4695F1DF07
:1011100008C0161617061806991FF1CF8695710597
:10112000610508940895E894BB2766277727CB01CB
:1011300097F908950BD0C4CFB5DF28F0BADF18F0C7
:10114000952309F0A6CFABCF1124EECFCADFA0F3D1
:10115000959FD1F3950F50E0551F629FF001729F4C
:10116000BB27F00DB11D639FAA27F00DB11DAA1F6B
:10117000649F6627B00DA11D661F829F2227B00DB8
:10118000A11D621F739FB00DA11D621F839FA00D43
:10119000611D221F749F3327A00D611D231F849F93
:1011A000600D211D822F762F6A2F11249F575040EA
:1011B0008AF0E1F088234AF0EE0FFF1FBB1F661F85
:1011C000771F881F91505040A9F79E3F510570F03E
:1011D00060CFAACF5F3FECF3983EDCF3869577951E
:1011E0006795B795F795E7959F5FC1F7FE2B880F39
:1011F000911D9695879597F9089597FB092E0726D7
:101200000AD077FD04D049D006D000201AF470959A
:1012100061957F4F0895F6F7909581959F4F0895BA
:10122000A1E21A2EAA1BBB1BFD010DC0AA1FBB1FEA
:10123000EE1FFF1FA217B307E407F50720F0A21B5C
:10124000B30BE40BF50B661F771F881F991F1A94C9
:1012500069F760957095809590959B01AC01BD01F3
:10126000CF01089597FB092E05260ED057FD04D017
:10127000D7DF0AD0001C38F4509540953095219561
:101280003F4F4F4F5F4F0895F6F7909580957095BB
:1012900061957F4F8F4F9F4F0895AA1BBB1B51E154
:1012A00007C0AA1FBB1FA617B70710F0A61BB70BD6
:1012B000881F991F5A95A9F780959095BC01CD017B
:1012C0000895EE0FFF1F0590F491E02D0994F89416
:0212D000FFCF4E
:1012D200523D002000435243206973206E6F7420F8
:1012E20076616C6964210A004465766963652069E8
:1012F20073206E6F74206120445331385332302092
:1013020066616D696C79206465766963652E0A0091
:10131200503D00202000543D00204352433D000533
:0A13220037370500000000F3030058
:00000001FF
