:100000000C945C000C94270A0C94540A0C94840001
:100010000C9484000C9484000C9484000C94840050
:100020000C9484000C9484000C9484000C94840040
:100030000C9484000C9484000C9484000C94840030
:100040000C94810A0C9484000C94B20C0C948400DF
:100050000C9484000C9484000C9484000C94840010
:100060000C9484000C948400000024272A000025AE
:10007000282B000023262904040404040404040299
:100080000202020202030303030303010204081035
:100090002040800102040810200102040810200002
:1000A0000000070002010000030406000000000039
:1000B000000000005B07140911241FBECFEFD4E03D
:1000C000DEBFCDBF11E0A0E0B1E0E4ECFDE102C095
:1000D00005900D92AA38B107D9F712E0AAE8B1E06D
:1000E00001C01D92A735B107E1F710E0C8EBD0E0E1
:1000F00004C02297FE010E94DC0EC43BD107C9F761
:100100000E940D090C94E00E0C940000CF92DF9237
:10011000EF92FF920F931F937C018B016A0120E005
:1001200030E04EEF50E060E070E00E94E004F70144
:1001300064857585882777FD8095982F0E94F10A40
:10014000F70182859385C81AD90A20E830E0C20EEB
:10015000D31E081B190B035F1F4F000F111F0E0D3D
:100160001F1DF801408151814C0D5D1D662757FD13
:100170006095762F20E030E0C7010E94E004F7018F
:1001800064857585882777FD8095982F0E94F10AF0
:100190001F910F91FF90EF90DF90CF9008958F9275
:1001A0009F92AF92BF92CF92DF92EF92FF920F9306
:1001B0001F934C01580169010E9486009701B60106
:1001C000A501C4010E94E0041F910F91FF90EF90E0
:1001D000DF90CF90BF90AF909F908F900895CF9277
:1001E000DF92EF92FF920F931F936C0178018901C8
:1001F0000E948600B801A701C6010E94AB041F91AE
:100200000F91FF90EF90DF90CF900895CF92DF9203
:10021000EF92FF920F931F936C01780189010E9466
:100220008600B801A701C6010E94B5041F910F9175
:10023000FF90EF90DF90CF900895EF92FF920F9391
:100240001F937C0189010E948600B801C7010E94AA
:10025000AF041F910F91FF90EF900895EF92FF92DE
:100260000F931F937C0189010E948600B801C7018A
:100270000E94D8041F910F91FF90EF900895FF9274
:100280000F931F938C01F22E0E9486006F2DC801E0
:100290000E94CD031F910F91FF900895EF92FF925E
:1002A0000F931F937C0189010E948600B801C7014A
:1002B0000E94F0041F910F91FF90EF900895FF921C
:1002C0000F931F938C01F22E0E9486006F2DC801A0
:1002D0000E941A041F910F91FF9008950F931F938E
:1002E000CF93DF93EC018E899F898617970709F4D6
:1002F00040C077FF02C060E070E08B016536710599
:1003000014F004E610E020E030E04CE750E060E05C
:1003100070E0CE010E94E0046C857D85882777FD22
:100320008095982F0E94F10A9801220F331FC8016F
:1003300045E0880F991F4A95E1F7821B930B64E60D
:1003400070E00E94760EAB0140585F4F662757FD64
:100350006095762F20E030E0CE010E94E0046C85AD
:100360007D85882777FD8095982F0E94F10A1F8B45
:100370000E8BDF91CF911F910F9108950F931F93D3
:100380008C0120E030E04EEF50E060E070E00E9431
:10039000E004F80164857585882777FD8095982F9E
:1003A0000E94F10A20E030E04CE050E060E070E0B4
:1003B000C8010E94E004F80164857585882777FDEF
:1003C0008095982F0E94F10A1F910F9108950F9325
:1003D0001F938C0120E030E04EEF50E060E070E0D1
:1003E0000E94E004F80164857585882777FD809573
:1003F000982F0E94F10A20E030E04DE050E060E0EC
:1004000070E0C8010E94E004F801648575858827C2
:1004100077FD8095982F0E94F10A1F910F91089502
:100420000F931F938C0120E030E04EEF50E060E02E
:1004300070E00E94E004F80164857585882777FDE7
:100440008095982F0E94F10A20E030E04EE050E0C5
:1004500060E070E0C8010E94E004F80164857585E1
:10046000882777FD8095982F0E94F10A1F910F91A0
:1004700008950F931F938C0120E030E04EEF50E081
:1004800060E070E00E94E004F801648575858827CB
:1004900077FD8095982F0E94F10A20E030E041E03E
:1004A00050E060E070E0C8010E94E004F80124859B
:1004B0003585B901F3E0660F771FFA95E1F7220F52
:1004C000331F620F731F882777FD8095982F0E9436
:1004D000F10A1F910F9108950F931F938C0120E053
:1004E00030E04EEF50E060E070E00E94E004F80180
:1004F00064857585882777FD8095982F0E94F10A7D
:1005000020E030E04CE150E060E070E0C8010E9483
:10051000E004F80164857585882777FD8095982F1C
:100520000E94F10A1F910F9108950F931F938C0160
:1005300020E030E04EEF50E060E070E00E94E00428
:10054000F80164857585882777FD8095982F0E942E
:10055000F10A20E030E048E150E060E070E0C801DE
:100560000E94E004F80164857585882777FD8095F1
:10057000982F0E94F10A1F910F9108950F931F93D6
:100580008C0120E030E04EEF50E060E070E00E942F
:10059000E004F80164857585882777FD8095982F9C
:1005A0000E94F10A20E030E048E050E060E070E0B6
:1005B000C8010E94E004F80164857585882777FDED
:1005C0008095982F0E94F10A1F910F9108950F9323
:1005D0001F938C0120E030E04EEF50E060E070E0CF
:1005E0000E94E004F80164857585882777FD809571
:1005F000982F0E94F10A20E030E04CE050E060E0EB
:1006000070E0C8010E94E004F801648575858827C0
:1006100077FD8095982F0E94F10A1F910F91089500
:10062000EF92FF921F93CF93DF93EC017B01142F86
:1006300061E088850E94BC0B6C857D85882777FDED
:100640008095982F0E94F10A40E855E260E070E042
:10065000CE010E9403056C857D85882777FD8095F6
:10066000982F0E94F10A112319F0CE010E9439023D
:10067000B701CE010E946E01CE010E94BE01DF9142
:10068000CF911F91FF90EF9008958F929F92AF921C
:10069000BF92CF92DF92EF92FF920F931F937C0154
:1006A000B62EA72E4A016901462F0E94C503F70105
:1006B000B086A1861387028784E090E095878487BF
:1006C00097868686D18AC08A81E090E0938B828B60
:1006D000958B848B84E690E0978B868B138E128E9D
:1006E00080E490E0958F848FD78EC68EC80ED91E79
:1006F000D1A2C0A21F910F91FF90EF90DF90CF90F9
:10070000BF90AF909F908F9008958F929F92AF92DD
:10071000BF92CF92DF92EF92FF920F931F937C01D3
:10072000B62EA72E4A016901462F0E94C503F70184
:10073000B086A1861387028784E090E0958784873E
:1007400097868686D18AC08A81E090E0938B828BDF
:10075000958B848B84E690E0978B868B138E128E1C
:1007600080E490E0958F848FD78EC68EC80ED91EF8
:10077000D1A2C0A21F910F91FF90EF90DF90CF9078
:10078000BF90AF909F908F900895FC01608341834C
:1007900012821382148215820895AF92BF92DF9263
:1007A000EF92FF920F931F93CF93DF93EC01B62E3E
:1007B0008A819B81AC81BD810097A105B10581F142
:1007C000EE80FF808DEF9FEFE80EF91E898160E0DB
:1007D0000E94DA0BC7010E941B0BDD24D39400E0BA
:1007E00010E0AB2CBB248D2D90E08A219B21892B1E
:1007F00019F0898161E002C0898160E00E94DA0B12
:10080000C7010E941B0BDD0C0F5F1F4F0830110545
:1008100051F7898161E00E94DA0BC7010E941B0B2E
:10082000DF91CF911F910F91FF90EF90DF90BF90DC
:10083000AF9008950E94CD0308952F923F924F925A
:100840005F926F927F928F929F92AF92BF92CF9260
:10085000DF92EF92FF920F931F93DF93CF93CDB769
:10086000DEB7A0970FB6F894DEBF0FBECDBF1C0158
:100870006A017B01411551056105710521F460E3B1
:100880000E94CD034FC0882499245401422E552440
:100890006624772401E010E00C0F1D1F080D191DC0
:1008A000C701B601A30192010E94890EF80160837D
:1008B0000894811C911CA11CB11CC701B601A301A5
:1008C00092010E94890EC901DA016C017D01C114F7
:1008D000D104E104F104F1F681E0E82EF12CEC0EF4
:1008E000FD1EE80CF91C3E010894611C711CD50129
:1008F000C4010197A109B1096C01C818D9080FC03A
:10090000F601EE0DFF1D60816A3010F4605D01C0DC
:10091000695CC1010E94CD030894E108F1086E14DE
:100920007F0471F7A0960FB6F894DEBF0FBECDBF5F
:10093000CF91DF911F910F91FF90EF90DF90CF90BB
:10094000BF90AF909F908F907F906F905F904F90EF
:100950003F902F9008952AE00E941D040895AB0156
:1009600060E070E00E94AB040895EF92FF920F9355
:100970001F93CF93DF93EC017A018B0177FF0BC0BC
:100980006DE20E94CD0310950095F094E094E11C77
:10099000F11C011D111DCE01B801A7012AE00E9422
:1009A0001D04DF91CF911F910F91FF90EF9008955B
:1009B000AB01662757FD6095762F0E94B504089518
:1009C0002115310521F4642F0E94CD0308952A30AA
:1009D000310519F40E94B50408950E941D0408957C
:1009E0000F931F93CF93DF938C01EB0104C02196EB
:1009F000C8010E94CD0368816623C9F7DF91CF91BA
:100A00001F910F9108950F931F938C019A01AB01D1
:100A1000FC01228333834483558360E472E48FE0D6
:100A200090E00E94AB0EF80137832683818161E05C
:100A30000E94DA0BF801868197810E941B0B1F919F
:100A40000F910895DC011A966C931A97262F30E0C7
:100A5000C90189589F4FFC0184911B968C931B9769
:100A600025573F4FF90194911C969C931C9790E059
:100A7000FC01E359FF4FE4911D96EC931D971E96E0
:100A80001C921E97FC01EE58FF4FE4911F96EC93C9
:100A90001F9750961C92509788599F4FFC01849144
:100AA00051968C93519752961C9252978FEF1896AD
:100AB0008C93189719961C92199787E0FD01E80FFF
:100AC000F11D1082882311F08150F8CF0895DC01C8
:100AD0008FEF18968C93189719961C92199787E0A8
:100AE000FD01E80FF11D1082882311F08150F8CF2D
:100AF0000895FC0140E030E05CE80EC0208190E009
:100B0000822F8327369580FD35279F5F983011F01F
:100B10002695F6CF4F5F3196461780F3832F0895C1
:100B2000FF920F931F938C01DC015196ED91FC9184
:100B3000529780811C969C911C97892B80831D96CF
:100B4000ED91FC911E9790811C968C918095892344
:100B5000808381E090E00E941B0BD8015196ED91BB
:100B6000FC91529790811C968C918095892380836B
:100B700085E090E00E941B0BD8011F96ED91FC913F
:100B800050972081FF2430E01C968C9190E0282320
:100B90003923232B11F0FF24F39482E390E00E9489
:100BA0001B0B8F2D1F910F91FF900895EF92FF92D5
:100BB0000F931F93CF93DF937C0101E010E0C0E01F
:100BC000D0E0C7010E9490058111102B000F2196E3
:100BD000C830D105B1F7812FDF91CF911F910F91CF
:100BE000FF90EF900895EF92FF920F931F937C0177
:100BF000062FDC015196ED91FC91529780811C9655
:100C00009C911C97892B80831D96ED91FC911E97DA
:100C100090811C968C91809589238083017010E0CF
:100C2000F801EF57FE4F808190E00E941B0BD70127
:100C30001D96ED91FC911E9780811C969C91892BAD
:100C4000808301581E4FF801808190E00E941B0BA9
:100C50001F910F91FF90EF900895CF92DF92EF9246
:100C6000FF920F931F93CF93DF938C01E42EFF2409
:100C7000F394C0E0D0E0C62EDD2460E08F2D90E03C
:100C80008C219D21892B09F061E0C8010E94F305A8
:100C9000FF0C2196C830D10581F7EE2051F4F80100
:100CA000828560E00E94BC0BF801828560E00E94B2
:100CB000DA0BDF91CF911F910F91FF90EF90DF90B2
:100CC000CF900895EF92FF920F931F93CF93DF93EE
:100CD0008C017B0165E540E00E942D06C0E0D0E07C
:100CE000F701EC0FFD1FC801608140E00E942D0656
:100CF0002196C830D105A1F7DF91CF911F910F91B7
:100D0000FF90EF9008951F93CF93DF93EC018A85B6
:100D100060E00E94BC0B1DE7115010F410E028C0E9
:100D200082E090E00E941B0B8A850E94250C892B93
:100D300099F38A8560E00E94DA0B8A8561E00E945F
:100D4000BC0B84EF91E00E941B0B8A8560E00E943F
:100D5000BC0B81E490E00E941B0B8A850E94250C4D
:100D600010E0892B09F411E08AEE91E00E941B0B40
:100D7000812FDF91CF911F9108958F929F92AF9213
:100D8000BF92DF92EF92FF920F931F93CF93DF9367
:100D9000EC015B018985882309F080C0CE010E94A7
:100DA0008306882309F47AC0CE0160EF40E00E94F8
:100DB0002D06EE24E394DD24DA9400E010E081E0D7
:100DC000882E912CCE010E949005F82ECE010E9413
:100DD0009005282F502F569556955695C801877027
:100DE0009070B40102C0660F771F8A95E2F7462F14
:100DF000FF2029F0222309F051C09F2D21C022237A
:100E000039F58885992787FD90950817190711F4FA
:100E1000D8860EC0081719076CF4262F30E0FE01A3
:100E2000E50FF11D808190E028233923232B19F051
:100E300091E003C0088790E0EE24D02E992341F082
:100E4000FE01E50FF11D8081842B8083F92E07C000
:100E5000FE01E50FF11D4095808148234083CE01BE
:100E60006F2D0E94F3050F5F1F4F0034110509F02D
:100E7000A9CFEE2011F081E0898720E030E0F50174
:100E8000E20FF31FDE01A20FB31F8C9180832F5F4F
:100E90003F4F2830310599F781E001C080E0DF91B4
:100EA000CF911F910F91FF90EF90DF90BF90AF9087
:100EB0009F908F9008950F931F938AE891E068E0C8
:100EC0000E9422058DE991E06CE070E042E050E084
:100ED00020E130E001E010E00E9445031F910F91F6
:100EE0000895EF92FF920F931F93DF93CF93CDB7A7
:100EF000DEB764970FB6F894DEBF0FBECDBF8AE8A9
:100F000091E08E010F5F1F4FB8010E94BD0688233C
:100F100029F48AE891E00E9467053BC181EC91E0E9
:100F200060E071E00E94240929E0E22EF12CEC0E31
:100F3000FD1EF80141918F0150E060E070E081EC0E
:100F400091E020E130E00E94120A81EC91E063E040
:100F500071E00E9424090E151F0559F77E010894BF
:100F6000E11CF11CC70167E00E947905988589178B
:100F700029F081EC91E065E071E007C08981883259
:100F800039F081EC91E068E171E00E94240901C12F
:100F90008AE891E00E9483068AE891E0B7010E9406
:100FA00062068AE891E064E441E00E942D0668EE62
:100FB00073E080E090E00E94F10A8AE891E00E94EC
:100FC00083068AE891E0B7010E9462068AE891E010
:100FD0006EEB40E00E942D0692E1E92EF12CEC0E22
:100FE000FD1E8AE891E00E94D605482FF801819302
:100FF0008F0150E060E070E081EC91E020E130E0B2
:101000000E94120A81EC91E060E471E00E942409E0
:101010000E151F0531F77A8560E02985620F711D75
:1010200084E0759567958A95E1F7882777FD809527
:10103000982F0E94870D26E636E646EE5FE30E9473
:10104000130E20E030E040E052E40E94F00C0E94D9
:10105000540D7B018C018B018DE991E061E070E022
:1010600041E050E023E431E00E944E018DE991E03F
:1010700061E070E047E050E097010E942E010734E4
:101080001105C4F410927A011092790110927C013A
:1010900010927B018FEF90E090937E0180937D0111
:1010A0008DE991E062E070E041E050E02AE431E057
:1010B0000E944E01C801875490400997C0F41092D5
:1010C0007A01109279018FEF90E090937C018093E8
:1010D0007B0110927E0110927D018DE991E062E02A
:1010E00070E041E050E026E531E00E944E0100351D
:1010F0001105C4F08FEF90E090937A01809379010D
:1011000010927C0110927B0110927E0110927D0161
:101110008DE991E062E070E041E050E022E631E0EC
:101120000E944E016091790170917A018091730162
:101130000E94630B60917B0170917C01809175012D
:101140000E94630B60917D0170917E018091770117
:101150000E94630B6CEB72E080E090E00E94F10A69
:1011600081EC91E06DE671E00E942409CE010996C0
:1011700068E00E947905482F50E060E070E081EC63
:1011800091E020E130E00E94120A81EC91E00E949F
:101190003C0964960FB6F894DEBF0FBECDBFCF9169
:1011A000DF911F910F91FF90EF90089581EC91E0F6
:1011B00040E855E260E070E00E941F098DE991E08F
:1011C00064E670E041E00E94100368EE73E080E0A6
:1011D00090E00E94F10A8091730161E00E94BC0BD3
:1011E0008091750161E00E94BC0B8091770161E004
:1011F0000E94BC0B8091730160E070E00E94630B61
:101200008091750160E070E00E94630B809177012E
:1012100060E070E00E94630B08950E94290B0E9419
:10122000D6080E947107FDCF87E891E09093C20134
:101230008093C1010895862F0E94AA0C0895CB01C6
:10124000BA010E94710C08950F931F93CF93DF93FF
:101250008C01EB0109C02196D801ED91FC91019020
:10126000F081E02DC801099568816623A1F7DF911F
:10127000CF911F910F9108950F931F938C01DC0163
:10128000ED91FC910190F081E02D6DE00995D80180
:10129000ED91FC910190F081E02DC8016AE0099583
:1012A0001F910F9108952F923F924F925F926F92EC
:1012B0007F928F929F92AF92BF92CF92DF92EF92E6
:1012C000FF920F931F93DF93CF93CDB7DEB7A09715
:1012D0000FB6F894DEBF0FBECDBF1C016A017B01C3
:1012E000411551056105710549F4DC01ED91FC9151
:1012F0000190F081E02D60E3099554C08824992481
:101300005401422E55246624772401E010E00C0F8E
:101310001D1F080D191DC701B601A30192010E94EE
:10132000890EF80160830894811C911CA11CB11CDA
:10133000C701B601A30192010E94890EC901DA0119
:101340006C017D01C114D104E104F104F1F681E0E6
:10135000E82EF12CEC0EFD1EE80CF91C3E01089461
:10136000611C711CD501C4010197A109B1096C016F
:10137000C818D90814C0F601EE0DFF1D60816A304F
:1013800010F4605D01C0695CD101ED91FC910190A8
:10139000F081E02DC10109950894E108F1086E146F
:1013A0007F0449F7A0960FB6F894DEBF0FBECDBFFD
:1013B000CF91DF911F910F91FF90EF90DF90CF9031
:1013C000BF90AF909F908F907F906F905F904F9065
:1013D0003F902F900895EF92FF920F931F93CF931A
:1013E000DF93EC017A018B0177FF0FC0E881F9816F
:1013F0000190F081E02D6DE2099510950095F09433
:10140000E094E11CF11C011D111DCE01B801A701E2
:101410002AE00E945309DF91CF911F910F91FF9015
:10142000EF900895DC012115310541F4ED91FC9117
:101430000190F081E02D642F099508952A3031053F
:1014400019F40E94EB0908950E94530908951F9210
:101450000F920FB60F9211242F933F934F935F93E8
:101460006F937F938F939F93AF93BF93EF93FF936C
:101470008091C3019091C401892B29F0E091C301AF
:10148000F091C4010995FF91EF91BF91AF919F91A8
:101490008F917F916F915F914F913F912F910F901D
:1014A0000FBE0F901F9018951F920F920FB60F92BC
:1014B00011242F933F934F935F936F937F938F9359
:1014C0009F93AF93BF93EF93FF938091C50190914A
:1014D000C601892B29F0E091C501F091C60109955B
:1014E000FF91EF91BF91AF919F918F917F916F91FC
:1014F0005F914F913F912F910F900FBE0F901F90D2
:1015000018951F920F920FB60F9211242F938F935D
:101510009F93AF93BF938091C7019091C801A09111
:10152000C901B091CA010196A11DB11D8093C701E7
:101530009093C801A093C901B093CA018091CB01D7
:101540009091CC01A091CD01B091CE018050904CF2
:10155000AF4FBF4F8093CB019093CC01A093CD01AF
:10156000B093CE0127C08091CB019091CC01A09186
:10157000CD01B091CE0180589E43A040B0408093F1
:10158000CB019093CC01A093CD01B093CE0180917B
:10159000CF019091D001A091D101B091D2010196DB
:1015A000A11DB11D8093CF019093D001A093D101D3
:1015B000B093D2018091CB019091CC01A091CD014B
:1015C000B091CE0181589E43A040B04060F6BF91DB
:1015D000AF919F918F912F910F900FBE0F901F9001
:1015E0001895EF92FF920F931F937B018C018FB799
:1015F000F8944091CF015091D0016091D101709148
:10160000D2018FBF2FB7F8948091CF019091D00174
:10161000A091D101B091D2012FBF841B950BA60BD5
:10162000B70BE816F9060A071B0760F71F910F9121
:10163000FF90EF900895019759F0FC01EE0FFF1F06
:10164000EE0FFF1F32978FB7F8943197F1F78FBFE6
:101650000895789484B5826084BD84B5816084BD2A
:1016600085B5826085BD85B5816085BDEEE6F0E01B
:10167000808181608083E1E8F0E080818260808306
:10168000808181608083E0E8F0E0808181608083F8
:10169000E1EBF0E0808184608083E0EBF0E080812A
:1016A00081608083EAE7F0E08081846080838081CC
:1016B0008260808380818160808380818068808374
:1016C0001092C10008951F93CF93DF93182FEB0161
:1016D00061E00E94BC0BE12FF0E0E156FF4F8491E6
:1016E000833051F480918000806880938000D09393
:1016F0008900C09388003CC0843051F48091800000
:10170000806280938000D0938B00C0938A0030C0A9
:10171000813039F4209729F184B5806884BDC7BD34
:1017200027C0823039F42097E1F084B5806284BD0F
:10173000C8BD1EC0863041F48091B000806880939F
:10174000B000C093B30014C0873041F48091B00062
:1017500080628093B000C093B4000AC0C038D10545
:101760001CF4812F60E002C0812F61E00E94DA0B3F
:10177000DF91CF911F910895282F30E0C90185573F
:101780009F4FFC01949129583F4FF9018491882380
:1017900081F0E82FF0E0E859FF4FE491F0E0662394
:1017A00029F4808190958923808308958081892BF5
:1017B00080830895482F50E0CA0181569F4FFC0155
:1017C0002491CA0185579F4FFC01949149585F4F5E
:1017D000FA0134913323C1F1222331F1233021F472
:1017E000809180008F7705C0243031F48091800093
:1017F0008F7D8093800018C0213019F484B58F77D5
:1018000004C0223021F484B58F7D84BD0DC0263004
:1018100021F48091B0008F7705C0273029F48091A2
:10182000B0008F7D8093B000E32FF0E0E359FF4FCD
:10183000E491F0E0662329F48081909589238083E8
:1018400008958081892B80830895482F50E0CA0134
:1018500081569F4FFC012491CA0185579F4FFC017F
:10186000949149585F4FFA013491332319F420E0E1
:1018700030E035C0222331F1233021F48091800003
:101880008F7705C0243031F4809180008F7D809364
:10189000800018C0213019F484B58F7704C022303D
:1018A00021F484B58F7D84BD0DC0263021F4809154
:1018B000B0008F7705C0273029F48091B0008F7D6C
:1018C0008093B000E32FF0E0EE58FF4FE491F0E09A
:1018D000808120E030E0892311F021E030E0C9016F
:1018E0000895EF92FF920F931F937B018C0122E0EA
:1018F00030E040E050E00E94AB0E205C3D4B404F9A
:101900005F4FCA01B901A80197010E94AB0EC9013E
:10191000DA010197A109B109292F3A2F4B2F552739
:1019200047FD5A950196A11DB11D2093C500815018
:101930008093C400E1ECF0E080818061808380814D
:10194000886080838081806880831F910F91FF90E1
:10195000EF900895982F8091C00085FFFCCF909361
:10196000C60008951F920F920FB60F9211242F9365
:101970003F934F935F936F937F938F939F93AF9317
:10198000BF93EF93FF934091C600E091D301F09194
:10199000D401CF01019660E870E00E94760E9C01B0
:1019A0008091D5019091D6012817390739F0E95275
:1019B000FE4F40833093D4012093D301FF91EF91E8
:1019C000BF91AF919F918F917F916F915F914F9157
:1019D0003F912F910F900FBE0F901F901895505868
:1019E000BB27AA270ED0E5C0D6D030F0DBD020F040
:1019F00031F49F3F11F41EF4CBC00EF4E095E7FBE9
:101A0000C1C0E92FE7D080F3BA17620773078407D4
:101A1000950718F071F49EF5FFC00EF4E0950B2EBB
:101A2000BA2FA02D0B01B90190010C01CA01A00130
:101A30001124FF27591B99F0593F50F4503E68F18B
:101A40001A16F040A22F232F342F4427585FF3CFCC
:101A5000469537952795A795F0405395C9F77EF49D
:101A60001F16BA0B620B730B840BBAF09150A1F0E6
:101A7000FF0FBB1F661F771F881FC2F70EC0BA0F6C
:101A8000621F731F841F48F4879577956795B795F4
:101A9000F7959E3F08F0B3CF9395880F08F09927EC
:101AA000EE0F97958795089504D06894B111B5C04D
:101AB000089598D088F09F5790F0B92F9927B75183
:101AC000A0F0D1F0660F771F881F991F1AF0BA9502
:101AD000C9F712C0B13081F09FD0B1E008959CC029
:101AE000672F782F8827B85F39F0B93FCCF38695F8
:101AF00077956795B395D9F73EF490958095709555
:101B000061957F4F8F4F9F4F0895E89409C097FBD1
:101B10003EF490958095709561957F4F8F4F9F4FC4
:101B20009923A9F0F92F96E9BB279395F695879508
:101B300077956795B795F111F8CFFAF4BB0F11F4CB
:101B400060FF1BC06F5F7F4F8F4F9F4F16C0882372
:101B500011F096E911C0772321F09EE8872F762FA8
:101B600005C0662371F096E8862F70E060E02AF0E9
:101B70009A95660F771F881FDAF7880F96958795D5
:101B800097F9089597F99F6780E870E060E00895FD
:101B90009FEF80EC089500240A9416161706180685
:101BA0000906089500240A94121613061406050661
:101BB0000895092E0394000C11F4882352F0BB0FF2
:101BC00040F4BF2B11F460FF04C06F5F7F4F8F4F55
:101BD0009F4F089557FD9058440F551F59F05F3F90
:101BE00071F04795880F97FB991F61F09F3F79F03F
:101BF00087950895121613061406551FF2CF4695C1
:101C0000F1DF08C0161617061806991FF1CF869542
:101C10007105610508940895E894BB276627772726
:101C2000CB0197F908950BD0C4CFB5DF28F0BADF08
:101C300018F0952309F0A6CFABCF1124EECFCADF61
:101C4000A0F3959FD1F3950F50E0551F629FF001CF
:101C5000729FBB27F00DB11D639FAA27F00DB11D28
:101C6000AA1F649F6627B00DA11D661F829F2227B1
:101C7000B00DA11D621F739FB00DA11D621F839F38
:101C8000A00D611D221F749F3327A00D611D231F0E
:101C9000849F600D211D822F762F6A2F11249F575C
:101CA00050408AF0E1F088234AF0EE0FFF1FBB1F7F
:101CB000661F771F881F91505040A9F79E3F51051E
:101CC00070F060CFAACF5F3FECF3983EDCF38695CF
:101CD00077956795B795F795E7959F5FC1F7FE2BC9
:101CE000880F911D9695879597F9089597FB092E72
:101CF00007260AD077FD04D049D006D000201AF478
:101D0000709561957F4F0895F6F7909581959F4F57
:101D10000895A1E21A2EAA1BBB1BFD010DC0AA1F2C
:101D2000BB1FEE1FFF1FA217B307E407F50720F044
:101D3000A21BB30BE40BF50B661F771F881F991FBF
:101D40001A9469F760957095809590959B01AC0108
:101D5000BD01CF01089597FB092E05260ED057FD32
:101D600004D0D7DF0AD0001C38F450954095309548
:101D700021953F4F4F4F5F4F0895F6F7909580950F
:101D8000709561957F4F8F4F9F4F0895AA1BBB1B86
:101D900051E107C0AA1FBB1FA617B70710F0A61B6B
:101DA000B70B881F991F5A95A9F780959095BC018C
:101DB000CD010895EE0FFF1F0590F491E02D0994D9
:041DC000F894FFCFC5
:101DC400523D002000435243206973206E6F7420FB
:101DD40076616C6964210A004465766963652069EB
:101DE40073206E6F742061204453313842323020A6
:101DF40066616D696C79206465766963652E0A0095
:101E040020200054656D703A2000436F6F6C2020D1
:101E14002020202020004E6F726D616C2020202035
:101E24002000486F742020202020202000204352CE
:101E3400433D000B0009000A00FF000100010005FA
:0A1E4400373705000000001B0900FD
:00000001FF
