:100000000C945A000C9475000C9475000C947500B7
:100010000C9475000C9475000C9475000C9475008C
:100020000C9475000C9475000C9475000C9475007C
:100030000C9475000C9475000C9475000C9475006C
:100040000C94A5010C9475000C9475000C9475002B
:100050000C9475000C9475000C9475000C9475004C
:100060000C9475000C94750000000007000201005C
:100070000003040600000000000000000102040864
:100080001020408001020408102001020408102002
:10009000040404040404040402020202020203032E
:1000A000030303030000232629000025282B00005A
:1000B00024272A0011241FBECFEFD4E0DEBFCDBF1E
:1000C00011E0A0E0B1E0EEE5F6E002C005900D928F
:1000D000A631B107D9F711E0A6E1B1E001C01D9248
:1000E000AA31B107E1F70C949A010C9400000F9328
:1000F0001F93CF93DF938C01C0910201D091030134
:1001000008C0602F61708C2F0E94C2021595079560
:10011000219680911401909115018C179D078CF701
:1001200060E0809100010E94C20281E090E00E94A4
:10013000040261E0809100010E94C20281E090E02F
:100140000E94040260E0809100010E94C20281E0EE
:1001500090E00E940402DF91CF911F910F910895CA
:100160000F931F93CF93DF938C0161E08091140173
:100170000E94C20260E0809112010E94C202C091FE
:100180000201D091030108C0602F61708C2F0E9482
:10019000C202159507952196809110019091110149
:1001A0008C179D078CF760E0809100010E94C202CD
:1001B00081E090E00E94040261E0809100010E94D1
:1001C000C20281E090E00E94040260E080910001A0
:1001D0000E94C20281E090E00E940402DF91CF9170
:1001E0001F910F910895CF93DF93C0910001D0919B
:1001F000010105C061E08C2F0E945B022196809175
:100200001401909115018C179D07A4F764E670E026
:1002100080E090E00E94E20180E390E00E9477009D
:1002200060E470E080E090E00E94E20180E390E012
:100230000E94770062E370E080E090E00E94E201BB
:1002400080E390E00E94770064E170E080E090E05D
:100250000E94E20186E090E00E94770064E170E095
:1002600080E090E00E94E2018EE090E00E94770042
:1002700064E170E080E090E00E94E20181E090E0C3
:100280000E94770064E670E080E090E00E94E20166
:1002900080E890E00E94770064E170E080E090E008
:1002A0000E94E201DF91CF91089582E090E00E94E8
:1002B00077006AE070E080E090E00E94E20188E46C
:1002C00090E00E94B0008FE690E00E94B0008CE6C3
:1002D00090E00E94B00081E690E00E94B00080E2D1
:1002E00090E00E94B00083E490E00E94B00081E6BC
:1002F00090E00E94B00082E790E00E94B00081E6AA
:1003000090E00E94B00083E690E00E94B0008FE68B
:1003100090E00E94B0008CE690E00E94B00081E680
:1003200090E00E94B00064EF71E080E090E00E94F5
:10033000E2010895CFEFD4E0DEBFCDBF0E941102ED
:100340000E94F3000E945501FDCF1F920F920FB63D
:100350000F9211248F939F93AF93BF9380911601B7
:1003600090911701A0911801B09119010196A11D5A
:10037000B11D8093160190931701A0931801B093BB
:100380001901BF91AF919F918F910F900FBE0F9068
:100390001F901895609116017091170180911801B6
:1003A0009091190127E0660F771F881F991F2A95E2
:1003B000D1F72DE730E040E050E00E940D03CA0184
:1003C000B9010895AF92BF92CF92DF92EF92FF9260
:1003D0000F931F935B016C010E94CA017B018C018A
:1003E0000E94CA016E197F09800B910B6A157B056B
:1003F0008C059D05A8F31F910F91FF90EF90DF9062
:10040000CF90BF90AF900895019751F0880F991F3A
:10041000880F991F02972FB7F8940197F1F72FBF14
:1004200008957894109216011092170110921801F5
:100430001092190184B5826084BD84B5816084BD49
:1004400085B5826085BD85B5816085BDEEE6F0E04D
:10045000808181608083E1E8F0E080818260808338
:10046000808181608083E0E8F0E08081816080832A
:10047000E1EBF0E0808184608083E0EBF0E080815C
:1004800081608083ECE7F0E080818F7780838081DA
:1004900080648083EAE7F0E08081846080838081EB
:1004A0008260808380818160808380818068808396
:1004B0001092C1000895282F3327C90184589F4FF7
:1004C000FC01949120573F4FF9018491882381F0DA
:1004D000E82FFF27E255FF4FE491FF27662329F419
:1004E000808190958923808308958081892B8083E2
:1004F0000895482F5527CA0188599F4FFC01249120
:10050000CA0184589F4FFC01949140575F4FFA01F4
:1005100034913323A1F1222331F1233021F480914E
:1005200080008F7705C0243031F4809180008F7D6A
:100530008093800018C0213019F484B58F7704C0EF
:10054000223021F484B58F7D84BD0DC0263021F486
:100550008091B0008F7705C0273029F48091B000DA
:100560008F7D8093B000E32FFF27EC55FF4FE49180
:10057000FF278081892319F081E090E0089580E0D1
:1005800090E00895482F5527CA0188599F4FFC01D4
:100590002491CA0184589F4FFC01949140575F4FAA
:1005A000FA0134913323C1F1222331F1233021F4B4
:1005B000809180008F7705C0243031F480918000D5
:1005C0008F7D8093800018C0213019F484B58F7717
:1005D00004C0223021F484B58F7D84BD0DC0263047
:1005E00021F48091B0008F7705C0273029F48091E5
:1005F000B0008F7D8093B000E32FFF27E755FF4FBA
:10060000E491FF27662329F48081909589238083D4
:1006100008958081892B80830895A1E21A2EAA1B58
:10062000BB1BFD010DC0AA1FBB1FEE1FFF1FA217A2
:10063000B307E407F50720F0A21BB30BE40BF50B9F
:10064000661F771F881F991F1A9469F76095709528
:0E065000809590959B01AC01BD01CF010895EE
:10065E000200030004000500060007000800090060
:06066E000A000B000C0065
:00000001FF
