:100000000C945B000C9481000C9481000C94810092
:100010000C9481000C9481000C9481000C9481005C
:100020000C9481000C9481000C9481000C9481004C
:100030000C9481000C9481000C9481000C9481003C
:100040000C94CF010C9481000C94B1030C948100AA
:100050000C9481000C9481000C9481000C9481001C
:100060000C9481000C948100CE0100000007000276
:10007000010000030406000000000000000001026F
:100080000408102040800102040810200102040826
:100090001020040404040404040402020202020204
:1000A0000303030303030000232629000025282B54
:1000B000000024272A0011241FBECFEFD4E0DEBFAA
:1000C000CDBF11E0A0E0B1E0EAE5FAE002C00590A2
:1000D0000D92A831B107D9F711E0A8E1B1E001C054
:1000E0001D92A13AB107E1F710E0CAE6D0E004C0E2
:1000F0002297FE010E942905C836D107C9F70C9442
:10010000FE000C9400000F931F9308E111E040E8FB
:1001100055E260E070E0C8010E940B0160E071E010
:10012000C8010E943E0164E670E080E090E00E9419
:100130000C021F910F910895DF92EF92FF920F939F
:100140001F938C01D82E61E00E94850260E0802F11
:100150000E94EC0261E0802F0E94EC0284E090E0BB
:100160000E942E0260E0802F0E94EC0260E0802F4F
:100170000E948502802F01C08D2D0E94A30200974E
:10018000D9F3EE24FF24870108C08D2D0E94A3021D
:100190000894E11CF11C011D111D0197B1F3C80168
:1001A000B7011F910F91FF90EF90DF900895CF92CC
:1001B000DF92EF92FF920F931F9388E090E00E94EE
:1001C0009C007B018C0188E1C82E81E0D82E6FE075
:1001D00071E0C6010E941E01B801A701C6010E947C
:1001E000940164E670E080E090E00E940C021F91B0
:1001F0000F91FF90EF90DF90CF900895CFEFD4E074
:10020000DEBFCDBF0E943B020E9483000E94D70048
:10021000FDCF08950895CB01BA010E9437030895D8
:100220000E947803992708950E94890308950E94E7
:10023000A8030895862F0E94EF030895CB010E9422
:10024000F6030895862F0E94EF0308950F931F93DE
:100250008C016DE00E941A016AE0C8010E941A0137
:100260001F910F9108950F931F938C010E941A0103
:10027000C8010E9426011F910F9108950F931F93AB
:100280008C010E941E01C8010E9426011F910F913E
:1002900008950F931F938C010E942201C8010E94B0
:1002A00026011F910F910895CB01BA0133274427EE
:1002B00055270E94030408952AE00E9454010895DE
:1002C0000F931F938C010E945C01C8010E942601BC
:1002D0001F910F910895AB01662777270E945C015B
:1002E0000895EF92FF920F931F93CF93DF93EC014A
:1002F0007A018B0177FF0BC06DE20E941A01109505
:100300000095F094E094E11CF11C011D111D2AE000
:10031000B801A701CE010E945401DF91CF911F9136
:100320000F91FF90EF9008950F931F938C010E94FF
:100330007101C8010E9426011F910F910895211596
:10034000310521F4642F0E941A0108952A303105E5
:1003500019F40E94710108950E94540108950F93A9
:100360001F938C010E949F01C8010E9426011F91CA
:100370000F910895AB01662757FD6095762F0E9477
:10038000710108950F931F938C010E94BA01C80157
:100390000E9426011F910F910895089508951F92BC
:1003A0000F920FB60F9211248F939F93AF93BF9329
:1003B00080911D0190911E01A0911F01B09120011B
:1003C0000196A11DB11D80931D0190931E01A09364
:1003D0001F01B0932001BF91AF919F918F910F901A
:1003E0000FBE0F901F90189560911D0170911E0116
:1003F00080911F019091200127E0660F771F881FD1
:10040000991F2A95D1F72DE730E040E050E00E9497
:10041000D604CA01B9010895AF92BF92CF92DF927C
:10042000EF92FF920F931F935B016C010E94F40106
:100430007B018C010E94F4016E197F09800B910BE6
:100440006A157B058C059D05A8F31F910F91FF9000
:10045000EF90DF90CF90BF90AF900895019751F04B
:10046000880F991F880F991F02972FB7F89401974B
:10047000F1F72FBF0895789410921D0110921E017C
:1004800010921F011092200184B5826084BD84B552
:10049000816084BD85B5826085BD85B5816085BD7F
:1004A000EEE6F0E0808181608083E1E8F0E0808129
:1004B00082608083808181608083E0E8F0E08081D9
:1004C00081608083E1EBF0E0808184608083E0EBF9
:1004D000F0E0808181608083ECE7F0E080818F77BD
:1004E0008083808180648083EAE7F0E0808184609B
:1004F000808380818260808380818160808380812D
:10050000806880831092C1000895282F3327C90185
:1005100082589F4FFC0194912E563F4FF9018491D0
:10052000882381F0E82FFF27E055FF4FE491FF2754
:10053000662329F4808190958923808308958081A2
:10054000892B80830895482F5527CA0186599F4FCC
:10055000FC012491CA0182589F4FFC0194914E5690
:100560005F4FFA0134913323A1F1222331F123307B
:1005700021F4809180008F7705C0243031F4809180
:1005800080008F7D8093800018C0213019F484B5DD
:100590008F7704C0223021F484B58F7D84BD0DC0D7
:1005A000263021F48091B0008F7705C0273029F4E0
:1005B0008091B0008F7D8093B000E32FFF27EA5534
:1005C000FF4FE491FF278081892319F081E090E0BB
:1005D000089580E090E00895482F5527CA01865974
:1005E0009F4FFC012491CA0182589F4FFC019491B6
:1005F0004E565F4FFA0134913323C1F1222331F17A
:10060000233021F4809180008F7705C0243031F4AD
:10061000809180008F7D8093800018C0213019F474
:1006200084B58F7704C0223021F484B58F7D84BDDA
:100630000DC0263021F48091B0008F7705C027309F
:1006400029F48091B0008F7D8093B000E32FFF27C5
:10065000E555FF4FE491FF27662329F480819095AB
:100660008923808308958081892B80830895EF9268
:10067000FF920F931F937B018C0122E030E040E05A
:1006800050E00E94F804205C3D4B404F5F4FCA0190
:10069000B901A80197010E94F80421503040404060
:1006A0005040BB2757FDBA95A52F942F832F2F5F5E
:1006B0003F4F4F4F5F4F8093C50021502093C400A0
:1006C000E1ECF0E0808180618083808188608083BC
:1006D0008081806880831F910F91FF90EF90089533
:1006E000982F8091C00085FFFCCF9093C60008959D
:1006F00080911B0190911C012091190130911A01E8
:10070000821B930B80589F4F60E870E00E94C304E7
:1007100008954091190150911A0180911B01909107
:100720001C018417950719F48FEF9FEF0895FA01C4
:10073000EF5DFE4F2081CA01019660E870E00E94E3
:10074000C30490931A0180931901822F9927089569
:100750008091190190911A0190931C0180931B01C3
:1007600008951F920F920FB60F9211242F933F936B
:100770004F935F936F937F938F939F93AF93BF93A9
:10078000EF93FF934091C600E0911B01F0911C0193
:10079000CF01019660E870E00E94C3049C01809143
:1007A000190190911A012817390739F0EF5DFE4FB2
:1007B000408330931C0120931B01FF91EF91BF9167
:1007C000AF919F918F917F916F915F914F913F91E9
:1007D0002F910F900FBE0F901F90189508950E94B3
:1007E000700308958AE00E94EF030895CF93DF938A
:1007F000EC0103C021960E94EF0388818823D1F782
:10080000DF91CF9108952F923F924F925F926F9216
:100810007F928F929F92AF92BF92CF92DF92EF9290
:10082000FF920F931F93CF93DF93CDB7DEB7A097BF
:100830000FB6F894DEBF0FBECDBF6B017C0119016E
:100840002A01611571058105910521F480E30E945B
:10085000EF034BC06624772443015E010894A11C7A
:10086000B11C8501060D171DC701B601A20191013A
:100870000E94D604F80160830894611C711C811CDD
:10088000911CC701B601A20191010E94D604690121
:100890007A01211531054105510519F773010894B5
:1008A000E108F108EA0CFB1CAA24BB24650111C075
:1008B000F70180818A3010F4805D01C0895C0E945C
:1008C000EF030894A108B108C108D1080894E10811
:1008D000F10888279927DC0186199709A809B90921
:1008E000A816B906CA06DB0619F7A0960FB6F89443
:1008F000DEBF0FBECDBFDF91CF911F910F91FF9053
:10090000EF90DF90CF90BF90AF909F908F907F90AF
:100910006F905F904F903F902F900895EF92FF92CD
:100920000F931F937B018C0197FF0BC08DE20E94F8
:10093000EF0310950095F094E094E11CF11C011D6B
:10094000111D2AE030E040E050E0C801B7010E94EC
:1009500003041F910F91FF90EF90089520E130E084
:1009600040E050E00E940304089528E030E040E0B9
:1009700050E00E940304089522E030E040E050E09F
:100980000E940304089597FB092E07260AD077FDDD
:1009900004D049D006D000201AF4709561957F4F9D
:1009A0000895F6F7909581959F4F0895A1E21A2E2C
:1009B000AA1BBB1BFD010DC0AA1FBB1FEE1FFF1F03
:1009C000A217B307E407F50720F0A21BB30BE40B53
:1009D000F50B661F771F881F991F1A9469F760959A
:1009E0007095809590959B01AC01BD01CF01089554
:1009F00097FB092E05260ED057FD04D0D7DF0AD06D
:100A0000001C38F450954095309521953F4F4F4F3D
:100A10005F4F0895F6F790958095709561957F4F9B
:100A20008F4F9F4F0895AA1BBB1B51E107C0AA1F00
:100A3000BB1FA617B70710F0A61BB70B881F991F7F
:100A40005A95A9F780959095BC01CD010895EE0FB8
:0A0A5000FF1F0590F491E02D0994BA
:100A5A00536F6E6172206465746563746F720056B9
:080A6A00616C75653A20000083
:00000001FF
