:100000000C9436000C94C5070C94F2070C945E0017
:100010000C945E000C945E000C945E000C945E00E8
:100020000C945E000C945E000C945E000C945E00D8
:100030000C945E000C945E000C945E000C945E00C8
:100040000C941F080C945E000C9434090C945E0010
:100050000C945E000C945E000C945E000C945E00A8
:100060000C945E000C945E000407730711241FBEFD
:10007000CFEFD4E0DEBFCDBF11E0A0E0B1E0EAEB0E
:10008000F3E102C005900D92A237B107D9F712E053
:10009000A2E7B1E001C01D92AC34B107E1F710E076
:1000A000CCE6D0E004C02297FE010E94D709C836F2
:1000B000D107C9F70E946C070C94DB090C9400006F
:1000C000FC018AE691E09183808374836383568385
:1000D000458308950F931F938C01DC0112968C9138
:1000E0000E94E401F80182810E947001D8011296F9
:1000F000EC91F0E0EE0FFF1FEC58FE4F11821082E2
:100100001F910F910895FC0182810E94A20508951C
:10011000CF93DF93EC018A810E945805843161F00E
:10012000882351F08C3131F48A810E94A20520E0AD
:10013000892B19F021E001C020E0822FDF91CF91BF
:1001400008950F931F93DF93CF930F92CDB7DEB730
:100150008C01FC0182810E94A205892B19F42FEFEA
:100160003FEF0CC0F8018281BE016F5F7F4F41E01D
:1001700050E00E9467028981282F30E0C9010F906A
:10018000CF91DF911F910F910895DF93CF930F923D
:10019000CDB7DEB76983FC018281BE016F5F7F4FFF
:1001A00041E050E00E948B020F90CF91DF910895C3
:1001B0001F93CF93DF93EC018FEF8A8310E0812FA1
:1001C0000E945805882309F41A831F5F1430B9F779
:1001D0008A818F3F21F140917201509173014F5FED
:1001E0005F4F509373014093720140505C4F61E048
:1001F00020E00E9403026B817C814D815E818A81B7
:100200000E94830103C08A810E945805882339F027
:100210008A810E9458058731B1F781E001C080E0F2
:10022000DF91CF911F910895AF92BF92CF92DF924D
:10023000EF92FF920F931F937B016A0159010E9475
:10024000D00485E565E50E949B03C7010E94100567
:10025000C6010E943A05C5010E94D404C8010E944B
:10026000F2041F910F91FF90EF90DF90CF90BF901D
:10027000AF9008950F931F93DF93CF9300D000D0DA
:10028000CDB7DEB7EFEFE983EA83EB831C828E0103
:100290000F5F1F4F0E9414010F900F900F900F904F
:1002A000CF91DF911F910F910895DF93CF9300D0ED
:1002B00000D0CDB7DEB7FA012081298321812A83BE
:1002C00022812B8321E02C839E012F5F3F4F0E94D0
:1002D0003A010F900F900F900F90CF91DF910895FA
:1002E000CF93DF9390E0D82FCC27CF5FDB4FCE01A9
:1002F00068E00E940403CE010E9423038823D9F7FB
:10030000DF91CF910895CF92DF92EF92FF920F93FA
:100310001F93CF93DF93082FEB016A0168816F3F32
:1003200051F489818F3F91F48A818F3F79F48B81D9
:100330008F3F61F43FC0662349F48981882331F4FB
:100340008A81882319F48B818823A1F1C114D104F7
:1003500089F110E00C5F1F4FF02EEE24C7010C96C0
:100360000E940403C7010D9669810E940403C7011E
:100370000E966A810E940403C7010F966B810E944A
:1003800004038701005F1F4FC8016D2D0E94040305
:10039000C80101966C2D0E940403E7012196CE014D
:1003A00064E00E940403CE010E9423038823D9F74E
:1003B00081E001C080E0DF91CF911F910F91FF900C
:1003C000EF90DF90CF9008950F931F93CF93DF931B
:1003D000082F10E00C5F1F4FD02FCC272196CE01A5
:1003E00060E10E940403CE010E9423038823D9F711
:1003F000902F882702966FEF0E940403DF91CF9120
:100400001F910F910895CF92DF92EF92FF920F9379
:100410001F93CF93DF93082FE62EEA01F22E862F4B
:100420008150853010F080E049C0802F0E94E401A7
:1004300010E00C5F1F4FD02ECC24FE28C6016F2D7C
:100440000E940403B6E0000F111FBA95E1F7209750
:1004500071F00F5F1F4F000F111F000F111FC80118
:100460006D2F0E940403C80101966C2F18C02091C3
:100470007D0130917E012F5F3F4F30937E012093AD
:100480007D010F5F1F4F000F111F000F111FC801CB
:10049000632F0E940403C801019660917D010E94B0
:1004A000040386010F5F1F4FC80161E00E9404032F
:1004B000C8010E9423038823D9F781E0DF91CF91FF
:1004C0001F910F91FF90EF90DF90CF900895FF92D2
:1004D0000F931F93CF93DF93F82E8A014115510597
:1004E00019F440E050E010C00E94BF06DF2DC0E0CC
:1004F000CF5FDB4FCE0160E40E940403CE010E9477
:1005000023038823D9F7A801CA01DF91CF911F9156
:100510000F91FF9008956F927F928F929F92BF925A
:10052000CF92DF92EF92FF920F931F93CF93DF93BF
:10053000B82E3B01EA010E94FB028C179D0710F0C8
:100540008E0104C08B2D0E94FB028C01EB2CFF243A
:1005500084E090E0E80EF91EDE2CCC2453E0852EDA
:10056000912C8C0C9D1C8B2D0E946005EC01C4010C
:100570000E942303873129F08C3119F000E010E04C
:1005800003C0C017D10778F38B2DB301A8010E94D7
:100590003006E6012196CE0160E20E940403CE01FE
:1005A0000E9423038823D9F70BC0C4010E942303B0
:1005B000882349F48B2D0E94E40100E010E00CC078
:1005C000DE2DCC272296CE010E94230384FFEDCF9F
:1005D000CE0160E10E940403C801DF91CF911F9119
:1005E0000F91FF90EF90DF90CF90BF909F908F90F2
:1005F0007F906F900895E82FF0E0EE0FFF1FE15716
:10060000FE4F808191810895282F84B18C6284B936
:100610002A9A85B1877D85B980E58CBD2A9880EFBF
:100620008EBD0DB407FEFDCF9EBD0DB407FEFDCF00
:100630002EBD0DB407FEFDCF6EBD0DB407FEFDCF80
:100640002A9A81E00895282F84B18C6284B92A9A6D
:1006500085B1877D85B980E58CBD2A988FE08EBDF8
:100660000DB407FEFDCF9EBD0DB407FEFDCF2EBD20
:100670000DB407FEFDCF1EBC0DB407FEFDCF8EB539
:100680002A9A0895DC0184B18C6284B92A9A85B1D2
:10069000877D85B980E58CBD20E030E090EF19C002
:1006A0002A989EBD0DB407FEFDCFBEBD0DB407FE5A
:1006B000FDCFAEBD0DB407FEFDCFFB01E20FF31F72
:1006C00080818EBD0DB407FEFDCF2A9A2F5F3F4F6C
:1006D00011962417350720F3CA010895DC0184B16F
:1006E0008C6284B92A9A85B1877D85B980E58CBDF5
:1006F00020E030E09FE01AC02A989EBD0DB407FEAE
:10070000FDCFBEBD0DB407FEFDCFAEBD0DB407FEDF
:10071000FDCF1EBC0DB407FEFDCF8EB5FB01E20F71
:10072000F31F80832A9A2F5F3F4F119624173507B6
:1007300018F3CA0108952F923F924F925F926F92E1
:100740007F928F929F92AF92BF92CF92DF92EF9261
:10075000FF920F931F93DF93CF9300D000D0CDB7BC
:10076000DEB7182F062F8BE190E0612F0E94040363
:100770008AE190E0602F0E94040380E090E490936F
:10078000A00180939F0180E090E69093A801809360
:10079000A7016FE871E087E991E09C838B83F7E81C
:1007A000CF2EF1E0DF2EEFE7EE2EE1E0FE2EAA24C1
:1007B000BB24662477248824992440E050E0E12F6C
:1007C000F0E0FA83E983202E3324FB0111821082AA
:1007D000EB81FC8111821082F0E06F16F0E27F065F
:1007E000DCF589819A81042E02C0959587950A943B
:1007F000E2F78370907081309105A1F0823091050D
:100800001CF4892B39F028C08230910599F00397A8
:1008100019F518C080E094E0FB01918380838FEF8D
:1008200093E017C080E098E0FB01918380838FEF15
:1008300097E00FC080E090E1FB01918380838FEF10
:100840009FE007C080E090E2FB01918380838FEFFF
:100850009FE1F7019183808390E0891690E29906E9
:100860000CF03EC0C101042E02C0959587950A94F4
:10087000E2F78370907081309105A9F08230910584
:100880001CF4892B39F02CC082309105A9F0039714
:1008900039F51BC080E094E0EB81FC81918380837B
:1008A0008FEF93E01AC080E098E0EB81FC819183A8
:1008B00080838FEF97E011C080E090E1EB81FC81B5
:1008C000918380838FEF9FE008C080E090E2EB810E
:1008D000FC81918380838FEF9FE1F6019183808378
:1008E000FB0140805180EB81FC8100811181A114CA
:1008F000B104F1F0FA01E156FE4FDA01A357BE4F01
:100900008D919C91329122913296820F931F918307
:100910008083FA01E955FE4FDA01AB56BE4F8D9147
:100920009C91329122913296820F931F9183808302
:100930000894A11CB11C6E5F7F4F4E5F5F4F8B818F
:100940009C8102969C838B83E2E0F0E0CE0EDF1E5A
:10095000EE0EFF1EF4E0AF16B10429F0640C751C16
:10096000800E911E32CF0F900F900F900F90CF916D
:10097000DF911F910F91FF90EF90DF90CF90BF908C
:10098000AF909F908F907F906F905F904F903F902F
:100990002F900895682F80E090E80E940403089546
:1009A00080E80E94CA0408950F931F938C0181E090
:1009B00090E0F80160810E94040382E090E0F80179
:1009C00061810E94040383E090E0F80162810E944B
:1009D000040384E090E0F80163810E9404031F9106
:1009E0000F9108950F931F938C0185E090E0F8011B
:1009F00060810E94040386E090E0F80161810E941A
:100A0000040387E090E0F80162810E94040388E01B
:100A100090E0F80163810E9404031F910F910895F3
:100A20000F931F938C0189E090E0F80160810E9490
:100A300004038AE090E0F80161810E9404038BE0E6
:100A400090E0F80162810E9404038CE090E0F801DC
:100A500063810E9404038DE090E0F80164810E94AC
:100A600004038EE090E0F80165810E9404031F9169
:100A70000F9108950F931F938C018FE090E0F80180
:100A800060810E94040380E190E0F80161810E948E
:100A9000040381E190E0F80162810E94040382E195
:100AA00090E0F80163810E9404031F910F91089563
:100AB00090E0982F88278D5F9B4F0E942303089515
:100AC0008F929F92AF92BF92CF92DF92EF92FF925E
:100AD0000F931F93CF93DF9390E0982F8827805E2A
:100AE0009B4F4C015C010894A11CB11CC0E0D0E0FC
:100AF000C4010E942303F82EEE24C5010E942303A3
:100B00006701C80ED11CC114D10459F0C4010E9460
:100B10002303182F00E0C5010E942303E801C80F3A
:100B2000D11DCC15DD0521F7CE01DF91CF911F91AD
:100B30000F91FF90EF90DF90CF90BF90AF909F907C
:100B40008F9008958F929F92AF92BF92CF92DF9233
:100B5000EF92FF920F931F93CF93DF9390E0049651
:100B6000982F882716E2812E912C880E991EB7E2C5
:100B7000AB2EB12CA80EB91EC0E0D0E0C4010E947B
:100B80002303F82EEE24C5010E9423036701C80E3B
:100B9000D11CC114D10459F0C4010E942303182FA1
:100BA00000E0C5010E942303E801C80FD11DCC1548
:100BB000DD0521F7CE01DF91CF911F910F91FF90BD
:100BC000EF90DF90CF90BF90AF909F908F9008955F
:100BD000CF92DF92EF92FF920F931F93CF93DF9309
:100BE0007B01E901E82FF0E0EE0FFF1FDF01A158C4
:100BF000BE4F8D919C91482359238FE9C82E81E0E7
:100C0000D82ECE0EDF1ED6012D913C91240F351F1C
:100C1000E157FE4F0190F081E02DCA018C0F9D1F1E
:100C2000E817F90780F48F01041B150BC901A8010F
:100C30000E944203C01BD10BF601808191810E0DF1
:100C40001F1DB80101C0C901AE010E944203DF911E
:100C5000CF911F910F91FF90EF90DF90CF9008956B
:100C60007F928F929F92AF92BF92CF92DF92EF923C
:100C7000FF920F931F93782E4B015A01E82EFF2409
:100C800084E090E0E80EF91EFE2CEE2424E2C22E51
:100C9000D12CCE0CDF1CC6010E942303182F00E0CC
:100CA00085E290E0E80EF91EC7010E942303080FB9
:100CB000111D872DB401A80195010E94E8050A0DB8
:100CC0001B1DC601612F0E940403C701602F0E94F3
:100CD00004031F910F91FF90EF90DF90CF90BF9092
:100CE000AF909F908F907F900895CF92DF92EF9278
:100CF000FF920F931F93CF93DF937A01E901E82FBF
:100D0000F0E0EE0FFF1FDF01A957BE4F8D919C91C0
:100D10006823792347EAC42E41E0D42ECE0EDF1E8D
:100D2000D6012D913C91260F371FE956FE4F0190B9
:100D3000F081E02DCE01860F971FE817F90788F4A0
:100D40008F01061B170BC901B701A8010E946E0392
:100D5000C01BD10BF601808191810E0D1F1DB801C2
:100D600002C0C901B701AE010E946E03DF91CF91AD
:100D70001F910F91FF90EF90DF90CF9008957F9299
:100D80008F929F92AF92BF92CF92DF92EF92FF929B
:100D90000F931F93782E4B015A01E82EFF2484E015
:100DA00090E0E80EF91EFE2CEE2468E2C62ED12C4F
:100DB000CE0CDF1CC6010E942303182F00E089E23D
:100DC00090E0E80EF91EC7010E942303080F111DD1
:100DD000872DB801A40195010E9475060A0D1B1DFF
:100DE000C601612F0E940403C701602F0E94040303
:100DF0001F910F91FF90EF90DF90CF90BF90AF9039
:100E00009F908F907F9008958FEA91E062E671E065
:100E100040E550E00E94600008958FEA91E00E9452
:100E20008300892B49F08FEA91E00E94A100682F8E
:100E300086EB91E00E9483078FEA91E00E94880090
:100E4000882379F486EB91E00E94A30786EB91E07A
:100E500060E071E00E94BA078FEA91E00E946A00A8
:100E6000FFCF08958CE791E068E571E04EE551E031
:100E70000E94550186EB91E040E855E260E070E0A9
:100E80000E947E0768EE73E080E090E00E948F0889
:100E900086EB91E06FE071E00E94BA078FEA91E083
:100EA0000E94D800882389F086EB91E06DE171E023
:100EB0000E94BA078FEA91E067E271E00E94BA07E8
:100EC0008FEA91E00E94A307089586EB91E066E423
:100ED00071E00E94BA0708950E94B9080E94320783
:100EE0000E940D07FDCF80E791E09093B7018093BA
:100EF000B6010895862F0E942C090895CB01BA01EE
:100F00000E94F3080895DC01ED91FC910190F081BD
:100F1000E02D099508950F931F93CF93DF938C01D4
:100F2000EB0109C02196D801ED91FC910190F0816F
:100F3000E02DC801099568816623A1F7DF91CF9163
:100F40001F910F9108950F931F938C01DC01ED9178
:100F5000FC910190F081E02D6DE00995D801ED91B3
:100F6000FC910190F081E02DC8016AE009951F9184
:100F70000F9108950F931F938C010E948B07C80156
:100F80000E94A3071F910F9108951F920F920FB611
:100F90000F9211242F933F934F935F936F937F93FF
:100FA0008F939F93AF93BF93EF93FF938091B8017B
:100FB0009091B901892B29F0E091B801F091B90124
:100FC0000995FF91EF91BF91AF919F918F917F9183
:100FD0006F915F914F913F912F910F900FBE0F90A6
:100FE0001F9018951F920F920FB60F9211242F93F6
:100FF0003F934F935F936F937F938F939F93AF93A1
:10100000BF93EF93FF938091BA019091BB01892B1D
:1010100029F0E091BA01F091BB010995FF91EF91A0
:10102000BF91AF919F918F917F916F915F914F9100
:101030003F912F910F900FBE0F901F9018951F9208
:101040000F920FB60F9211242F938F939F93AF930C
:10105000BF938091BC019091BD01A091BE01B09160
:10106000BF010196A11DB11D8093BC019093BD01EC
:10107000A093BE01B093BF018091C0019091C101C6
:10108000A091C201B091C3018050904CAF4FBF4FAF
:101090008093C0019093C101A093C201B093C3019A
:1010A00027C08091C0019091C101A091C201B0916F
:1010B000C30180589E43A040B0408093C0019093EC
:1010C000C101A093C201B093C3018091C40190916A
:1010D000C501A091C601B091C7010196A11DB11D26
:1010E0008093C4019093C501A093C601B093C7013A
:1010F0008091C0019091C101A091C201B091C30142
:1011000081589E43A040B04060F6BF91AF919F913F
:101110008F912F910F900FBE0F901F901895EF9207
:10112000FF920F931F937B018C018FB7F89440912E
:10113000C4015091C5016091C6017091C7018FBF74
:101140002FB7F8948091C4019091C501A091C60178
:10115000B091C7012FBF841B950BA60BB70BE816E8
:10116000F9060A071B0760F71F910F91FF90EF9098
:101170000895789484B5826084BD84B5816084BD0F
:1011800085B5826085BD85B5816085BDEEE6F0E000
:10119000808181608083E1E8F0E0808182608083EB
:1011A000808181608083E0E8F0E0808181608083DD
:1011B000E1EBF0E0808184608083E0EBF0E080810F
:1011C00081608083EAE7F0E08081846080838081B1
:1011D0008260808380818160808380818068808359
:1011E0001092C1000895EF92FF920F931F937B011D
:1011F0008C0122E030E040E050E00E94A609205C33
:101200003D4B404F5F4FCA01B901A80197010E94B1
:10121000A609C901DA010197A109B109292F3A2FBD
:101220004B2F552747FD5A950196A11DB11D2093BF
:10123000C50081508093C400E1ECF0E080818061C2
:1012400080838081886080838081806880831F9113
:101250000F91FF90EF900895982F8091C00085FF27
:10126000FCCF9093C60008951F920F920FB60F9275
:1012700011242F933F934F935F936F937F938F939B
:101280009F93AF93BF93EF93FF934091C600E0917C
:10129000C801F091C901CF01019660E870E00E9499
:1012A00071099C018091CA019091CB0128173907DF
:1012B00039F0E453FE4F40833093C9012093C801B5
:1012C000FF91EF91BF91AF919F918F917F916F911E
:1012D0005F914F913F912F910F900FBE0F901F90F4
:1012E000189597FB092E07260AD077FD04D049D020
:1012F00006D000201AF4709561957F4F0895F6F797
:10130000909581959F4F0895A1E21A2EAA1BBB1BB1
:10131000FD010DC0AA1FBB1FEE1FFF1FA217B307C1
:10132000E407F50720F0A21BB30BE40BF50B661FD7
:10133000771F881F991F1A9469F76095709580959B
:1013400090959B01AC01BD01CF01089597FB092E3B
:1013500005260ED057FD04D0D7DF0AD0001C38F484
:1013600050954095309521953F4F4F4F5F4F0895D1
:10137000F6F790958095709561957F4F8F4F9F4FB1
:101380000895AA1BBB1B51E107C0AA1FBB1FA617CC
:10139000B70710F0A61BB70B881F991F5A95A9F71E
:1013A00080959095BC01CD010895EE0FFF1F05902B
:0A13B000F491E02D0994F894FFCFAA
:1013BA00646973636F6E6E656374696E672E00632A
:1013CA006F6E6E656374696E672E2E2E00636F6E84
:1013DA006E656374656400474554202F73656172B6
:1013EA0063683F713D61726475696E6F2048545439
:1013FA00502F312E3000636F6E6E656374696F6EA5
:10140A00206661696C656400DEADBEEFFEEDC0A8C2
:10141A0001E140E9BB6300000000C50000000000D4
:02142A007A073F
:00000001FF
