:100000000C945A000C9475000C9475000C947500B7
:100010000C9475000C9475000C9475000C9475008C
:100020000C9475000C9475000C9475000C9475007C
:100030000C9475000C9475000C9475000C9475006C
:100040000C943C010C9475000C9475000C94750094
:100050000C9475000C9475000C9475000C9475004C
:100060000C9475000C94750000000007000201005C
:100070000003040600000000000000000102040864
:100080001020408001020408102001020408102002
:10009000040404040404040402020202020203032E
:1000A000030303030000232629000025282B00005A
:1000B00024272A0011241FBECFEFD4E0DEBFCDBF1E
:1000C00011E0A0E0B1E0ECE8F5E002C005900D928F
:1000D000A035B107D9F711E0A0E5B1E001C01D924C
:1000E000AC35B107E1F70C9431010C94000061E0EC
:1000F00080914D010E94F20161E080914B010E94CC
:10010000F201089560E080914B010E945902109223
:1001100057011092560198C060E070E08091500144
:1001200090915101892B11F461E070E070935101BD
:100130006093500180914D010E9459021092530129
:100140001092520163C010925501109254014DC09B
:10015000AD5BBE4FE0915601F0915701EE0FFF1FCE
:10016000EE5FFE4F9C918181981711F561E08091BF
:100170004B010E945902E0915401F0915501EE0F9C
:10018000FF1FED5CFE4F808191810E949B0160E02A
:1001900080914B010E945902E0915401F091550168
:1001A000EE0FFF1FED5CFE4F808191810E949B014D
:1001B000E0915601F0915701EE0FFF1FEE5FFE4FE9
:1001C0008181803749F460E080914B010E9459029F
:1001D00084EF91E00E949B01809154019091550120
:1001E00001969093550180935401A0915401B091D0
:1001F0005501A830B1050CF4ABCF8091520190911C
:1002000053010196909353018093520140915601FE
:1002100050915701FA01EE0FFF1FEE5FFE4F8081F4
:100220002EE1829FC0011124805A954020915201F5
:1002300030915301821793070CF085CF4F5F5F4FCA
:100240005093570140935601209156013091570128
:100250008091000190910101281739070CF45CCFBF
:100260000895CFEFD4E0DEBFCDBF0E94A8010E9469
:1002700077000E948200FDCF1F920F920FB60F925F
:1002800011248F939F93AF93BF93809158019091C6
:100290005901A0915A01B0915B010196A11DB11DB8
:1002A0008093580190935901A0935A01B0935B0138
:1002B000BF91AF919F918F910F900FBE0F901F90A4
:1002C0001895609158017091590180915A0190914F
:1002D0005B0127E0660F771F881F991F2A95D1F7CA
:1002E0002DE730E040E050E00E94A402CA01B901CD
:1002F0000895AF92BF92CF92DF92EF92FF920F9349
:100300001F935B016C010E9461017B018C010E94C3
:1003100061016E197F09800B910B6A157B058C05B5
:100320009D05A8F31F910F91FF90EF90DF90CF9064
:10033000BF90AF900895019751F0880F991F880FD3
:10034000991F02972FB7F8940197F1F72FBF0895DF
:100350007894109258011092590110925A011092FB
:100360005B0184B5826084BD84B5816084BD85B540
:10037000826085BD85B5816085BDEEE6F0E0808157
:1003800081608083E1E8F0E0808182608083808109
:1003900081608083E0E8F0E0808181608083E1EB30
:1003A000F0E0808184608083E0EBF0E08081816018
:1003B0008083ECE7F0E080818F77808380818064A8
:1003C0008083EAE7F0E080818460808380818260BE
:1003D00080838081816080838081806880831092A7
:1003E000C1000895282F3327C90184589F4FFC016D
:1003F000949120573F4FF9018491882381F0E82F91
:10040000FF27E255FF4FE491FF27662329F48081FF
:1004100090958923808308958081892B8083089516
:10042000482F5527CA0188599F4FFC012491CA01C2
:1004300084589F4FFC01949140575F4FFA013491CB
:100440003323A1F1222331F1233021F48091800064
:100450008F7705C0243031F4809180008F7D8093A8
:10046000800018C0213019F484B58F7704C0223081
:1004700021F484B58F7D84BD0DC0263021F4809198
:10048000B0008F7705C0273029F48091B0008F7DB0
:100490008093B000E32FFF27EC55FF4FE491FF2737
:1004A0008081892319F081E090E0089580E090E058
:1004B0000895482F5527CA0188599F4FFC01249160
:1004C000CA0184589F4FFC01949140575F4FFA0135
:1004D00034913323C1F1222331F1233021F480916F
:1004E00080008F7705C0243031F4809180008F7DAB
:1004F0008093800018C0213019F484B58F7704C030
:10050000223021F484B58F7D84BD0DC0263021F4C6
:100510008091B0008F7705C0273029F48091B0001A
:100520008F7D8093B000E32FFF27E755FF4FE491C5
:10053000FF27662329F4808190958923808308957D
:100540008081892B80830895A1E21A2EAA1BBB1BF0
:10055000FD010DC0AA1FBB1FEE1FFF1FA217B3078F
:10056000E407F50720F0A21BB30BE40BF50B661FA5
:10057000771F881F991F1A9469F760957095809569
:0C05800090959B01AC01BD01CF010895D6
:10058C001800326432613166326332643261326433
:10059C0032633266326432613263326432613166A4
:1005AC003263326432613261326732703870387063
:1005BC003870007B07A406EF059805FB047004F661
:1005CC0003BC03636465666761624307000D00004A
:00000001FF
