:100000000C945A000C9477000C9477000C947700B1
:100010000C9477000C9477000C9477000C94770084
:100020000C9477000C9477000C9477000C94770074
:100030000C9477000C9477000C9477000C94770064
:100040000C9409010C9477000C94E6020C94770050
:100050000C9477000C9477000C9477000C94770044
:100060000C9477000C947700000024272A000025C8
:10007000282B000023262904040404040404040299
:100080000202020202030303030303010204081035
:100090002040800102040810200102040810200002
:1000A0000000070002010000030406000000000039
:1000B0000000000011241FBECFEFD4E0DEBFCDBF93
:1000C00011E0A0E0B1E0E8ECF8E002C005900D928C
:1000D000A430B107D9F711E0A4E0B1E001C01D924E
:1000E000A239B107E1F70E9402010C9463040C9459
:1000F000000010920901109208011092050110925F
:10010000040161E0809100010E94B70160E08091EC
:1001100000010E94210282E090E00E94680161E0FB
:10012000809100010E94210285E090E00E94680118
:1001300060E0809100010E94210260E08091000156
:100140000E94B701809100010E94D50190930501A2
:10015000809304018091040190910501892B91F312
:1001600011C0809100010E94D501909305018093F8
:100170000401809108019091090101969093090171
:10018000809308018091040190910501019749F342
:1001900080910801909109019093070180930601D5
:1001A00081E40E94A50260910601709107018827F1
:1001B00077FD8095982F0E94CE038AE00E94A502C9
:1001C0008DE00E94A5028091080190910901181606
:1001D00019062CF461E0809102010E94210264E67C
:1001E00070E080E090E00E944601089560E875E2CA
:1001F00080E090E00E946C0261E0809102010E9428
:10020000B70108950E9475010E94F6000E947900CE
:10021000FDCF1F920F920FB60F9211248F939F93D1
:10022000AF93BF9380910E0190910F01A0911001A7
:10023000B09111010196A11DB11D80930E01909303
:100240000F01A0931001B0931101BF91AF919F9145
:100250008F910F900FBE0F901F90189560910E0117
:1002600070910F01809110019091110127E0660FAC
:10027000771F881F991F2A95D1F72DE730E040E0BE
:1002800050E00E941204CA01B9010895AF92BF92D2
:10029000CF92DF92EF92FF920F931F935B016C015D
:1002A0000E942E017B018C010E942E016E197F0994
:1002B000800B910B6A157B058C059D05A8F31F919A
:1002C0000F91FF90EF90DF90CF90BF90AF90089587
:1002D000019751F0880F991F880F991F02972FB728
:1002E000F8940197F1F72FBF0895789410920E01BA
:1002F00010920F01109210011092110184B58260CA
:1003000084BD84B5816084BD85B5826085BD85B5B9
:10031000816085BDEEE6F0E0808181608083E1E868
:10032000F0E0808182608083808181608083E0E86A
:10033000F0E0808181608083E1EBF0E08081846087
:100340008083E0EBF0E0808181608083EAE7F0E089
:1003500080818460808380818260808380818160ED
:1003600080838081806880831092C1000895282F47
:100370003327C90185579F4FFC01949129583F4F5E
:10038000F9018491882381F0E82FFF27E859FF4F76
:10039000E491FF27662329F4808190958923808347
:1003A00008958081892B80830895482F5527CA019D
:1003B00081569F4FFC012491CA0185579F4FFC0134
:1003C000949149585F4FFA013491332319F480E036
:1003D00090E00895222331F1233021F480918000B0
:1003E0008F7705C0243031F4809180008F7D809319
:1003F000800018C0213019F484B58F7704C02230F2
:1004000021F484B58F7D84BD0DC0263021F4809108
:10041000B0008F7705C0273029F48091B0008F7D20
:100420008093B000E32FFF27EE58FF4FE491FF27A2
:10043000808120E030E0892311F021E030E0C90123
:100440000895482F5527CA0181569F4FFC012491DA
:10045000CA0185579F4FFC01949149585F4FFA019B
:1004600034913323C1F1222331F1233021F48091DF
:1004700080008F7705C0243031F4809180008F7D1B
:100480008093800018C0213019F484B58F7704C0A0
:10049000223021F484B58F7D84BD0DC0263021F437
:1004A0008091B0008F7705C0273029F48091B0008B
:1004B0008F7D8093B000E32FFF27E359FF4FE49136
:1004C000FF27662329F480819095892380830895EE
:1004D0008081892B80830895EF92FF920F931F9361
:1004E0007B018C0122E030E040E050E00E943404C7
:1004F000205C3D4B404F5F4FCA01B901A8019701F5
:100500000E9434042150304040405040BB2757FDEA
:10051000BA95A52F942F832F2F5F3F4F4F4F5F4FDB
:100520008093C50021502093C400E1ECF0E080816D
:1005300080618083808188608083808180688083FF
:100540001F910F91FF90EF900895982F8091C00018
:1005500085FFFCCF9093C600089580910A01909189
:100560000B0120910C0130910D01821B930B8058DF
:100570009F4F60E870E00E94FF03089540910C01D6
:1005800050910D0180910A0190910B0184179507FC
:1005900019F48FEF9FEF0895FA01EE5EFE4F208170
:1005A000CA01019660E870E00E94FF0390930D017C
:1005B00080930C01822F9927089580910C019091CE
:1005C0000D0190930B0180930A0108951F920F92E1
:1005D0000FB60F9211242F933F934F935F936F9316
:1005E0007F938F939F93AF93BF93EF93FF9340912C
:1005F000C600E0910A01F0910B01CF01019660E87D
:1006000070E00E94FF039C0180910C0190910D010C
:100610002817390739F0EE5EFE4F408330930B0107
:1006200020930A01FF91EF91BF91AF919F918F911C
:100630007F916F915F914F913F912F910F900FBEDE
:100640000F901F9018950895982F8091C00085FFF6
:10065000FCCF9093C60008952F923F924F925F92E5
:100660006F927F928F929F92AF92BF92CF92DF92C2
:10067000EF92FF920F931F93CF93DF93CDB7DEB727
:10068000A0970FB6F894DEBF0FBECDBF6B017C0103
:1006900029013A01611571058105910541F48091A7
:1006A000C00085FFFCCF80E38093C60041C0882452
:1006B000992454011E010894211C311C8101080D4C
:1006C000191DC701B601A30192010E941204F8018D
:1006D00060830894811C911CA11CB11CC701B60148
:1006E000A30192010E94120469017A0121153105CA
:1006F0004105510519F79E012F5F3F4F14C0089423
:1007000081089108A108B108F901E80DF91DE081FF
:10071000EA3010F4E05D01C0E95C8091C00085FF23
:10072000FCCFE093C60081149104A104B10439F711
:10073000A0960FB6F894DEBF0FBECDBFDF91CF916C
:100740001F910F91FF90EF90DF90CF90BF90AF90EF
:100750009F908F907F906F905F904F903F902F90E1
:10076000089520E130E040E050E00E942C0308951D
:1007700028E030E040E050E00E942C03089522E0A1
:1007800030E040E050E00E942C0308958091C000CA
:1007900085FFFCCF8AE08093C6000895EF92FF9218
:1007A0000F931F937B018C0197FF0FC08091C000B6
:1007B00085FFFCCF8DE28093C60010950095F094E4
:1007C000E094E11CF11C011D111D2AE030E040E025
:1007D00050E0C801B7010E942C031F910F91FF90B8
:1007E000EF900895FC0107C08091C00085FFFCCF09
:1007F00031969093C60090819923B1F7089597FBA5
:10080000092E07260AD077FD04D049D006D0002053
:100810001AF4709561957F4F0895F6F7909581953C
:100820009F4F0895A1E21A2EAA1BBB1BFD010DC00C
:10083000AA1FBB1FEE1FFF1FA217B307E407F50790
:1008400020F0A21BB30BE40BF50B661F771F881F6C
:10085000991F1A9469F760957095809590959B0102
:10086000AC01BD01CF01089597FB092E05260ED0DE
:1008700057FD04D0D7DF0AD0001C38F450954095BE
:10088000309521953F4F4F4F5F4F0895F6F7909564
:100890008095709561957F4F8F4F9F4F0895AA1B4C
:1008A000BB1B51E107C0AA1FBB1FA617B70710F05B
:1008B000A61BB70B881F991F5A95A9F7809590958D
:0808C000BC01CD010895FFCF3A
:0408C80007000D0018
:00000001FF
